{
	"_format": "hh-sol-artifact-1",
	"contractName": "Flowy",
	"sourceName": "contracts/Flowy.sol",
	"abi": [
		{
			"inputs": [
				{
					"internalType": "address",
					"name": "_connext",
					"type": "address"
				},
				{
					"internalType": "address",
					"name": "_sourceToken",
					"type": "address"
				},
				{
					"internalType": "address",
					"name": "_destinationToken",
					"type": "address"
				},
				{
					"internalType": "address",
					"name": "_pushAddress",
					"type": "address"
				}
			],
			"stateMutability": "nonpayable",
			"type": "constructor"
		},
		{
			"anonymous": false,
			"inputs": [
				{
					"indexed": true,
					"internalType": "address",
					"name": "owner",
					"type": "address"
				},
				{
					"indexed": true,
					"internalType": "address",
					"name": "approved",
					"type": "address"
				},
				{
					"indexed": true,
					"internalType": "uint256",
					"name": "tokenId",
					"type": "uint256"
				}
			],
			"name": "Approval",
			"type": "event"
		},
		{
			"anonymous": false,
			"inputs": [
				{
					"indexed": true,
					"internalType": "address",
					"name": "owner",
					"type": "address"
				},
				{
					"indexed": true,
					"internalType": "address",
					"name": "operator",
					"type": "address"
				},
				{
					"indexed": false,
					"internalType": "bool",
					"name": "approved",
					"type": "bool"
				}
			],
			"name": "ApprovalForAll",
			"type": "event"
		},
		{
			"anonymous": false,
			"inputs": [
				{
					"indexed": true,
					"internalType": "address",
					"name": "from",
					"type": "address"
				},
				{
					"indexed": true,
					"internalType": "address",
					"name": "to",
					"type": "address"
				},
				{
					"indexed": true,
					"internalType": "uint256",
					"name": "tokenId",
					"type": "uint256"
				}
			],
			"name": "Transfer",
			"type": "event"
		},
		{
			"inputs": [],
			"name": "EPNS_COMM_ADDRESS",
			"outputs": [
				{
					"internalType": "address",
					"name": "",
					"type": "address"
				}
			],
			"stateMutability": "view",
			"type": "function"
		},
		{
			"inputs": [],
			"name": "_tokenIds",
			"outputs": [
				{
					"internalType": "uint256",
					"name": "_value",
					"type": "uint256"
				}
			],
			"stateMutability": "view",
			"type": "function"
		},
		{
			"inputs": [
				{
					"internalType": "address",
					"name": "to",
					"type": "address"
				},
				{
					"internalType": "uint256",
					"name": "tokenId",
					"type": "uint256"
				}
			],
			"name": "approve",
			"outputs": [],
			"stateMutability": "nonpayable",
			"type": "function"
		},
		{
			"inputs": [
				{
					"internalType": "address",
					"name": "owner",
					"type": "address"
				}
			],
			"name": "balanceOf",
			"outputs": [
				{
					"internalType": "uint256",
					"name": "",
					"type": "uint256"
				}
			],
			"stateMutability": "view",
			"type": "function"
		},
		{
			"inputs": [],
			"name": "connext",
			"outputs": [
				{
					"internalType": "contract IConnext",
					"name": "",
					"type": "address"
				}
			],
			"stateMutability": "view",
			"type": "function"
		},
		{
			"inputs": [],
			"name": "currAmount",
			"outputs": [
				{
					"internalType": "string",
					"name": "",
					"type": "string"
				}
			],
			"stateMutability": "view",
			"type": "function"
		},
		{
			"inputs": [],
			"name": "destinationToken",
			"outputs": [
				{
					"internalType": "contract IERC20",
					"name": "",
					"type": "address"
				}
			],
			"stateMutability": "view",
			"type": "function"
		},
		{
			"inputs": [
				{
					"internalType": "uint256",
					"name": "tokenId",
					"type": "uint256"
				}
			],
			"name": "generateNFT",
			"outputs": [
				{
					"internalType": "string",
					"name": "",
					"type": "string"
				}
			],
			"stateMutability": "view",
			"type": "function"
		},
		{
			"inputs": [
				{
					"internalType": "uint256",
					"name": "tokenId",
					"type": "uint256"
				}
			],
			"name": "getApproved",
			"outputs": [
				{
					"internalType": "address",
					"name": "",
					"type": "address"
				}
			],
			"stateMutability": "view",
			"type": "function"
		},
		{
			"inputs": [],
			"name": "getStreamDetails",
			"outputs": [
				{
					"internalType": "uint256",
					"name": "",
					"type": "uint256"
				},
				{
					"internalType": "uint256",
					"name": "",
					"type": "uint256"
				},
				{
					"internalType": "uint256",
					"name": "",
					"type": "uint256"
				},
				{
					"internalType": "uint256",
					"name": "",
					"type": "uint256"
				}
			],
			"stateMutability": "view",
			"type": "function"
		},
		{
			"inputs": [],
			"name": "getTimestamp",
			"outputs": [
				{
					"internalType": "uint256",
					"name": "",
					"type": "uint256"
				}
			],
			"stateMutability": "view",
			"type": "function"
		},
		{
			"inputs": [
				{
					"internalType": "uint256",
					"name": "tokenId",
					"type": "uint256"
				}
			],
			"name": "getTokenURI",
			"outputs": [
				{
					"internalType": "string",
					"name": "",
					"type": "string"
				}
			],
			"stateMutability": "view",
			"type": "function"
		},
		{
			"inputs": [
				{
					"internalType": "address",
					"name": "owner",
					"type": "address"
				},
				{
					"internalType": "address",
					"name": "operator",
					"type": "address"
				}
			],
			"name": "isApprovedForAll",
			"outputs": [
				{
					"internalType": "bool",
					"name": "",
					"type": "bool"
				}
			],
			"stateMutability": "view",
			"type": "function"
		},
		{
			"inputs": [],
			"name": "name",
			"outputs": [
				{
					"internalType": "string",
					"name": "",
					"type": "string"
				}
			],
			"stateMutability": "view",
			"type": "function"
		},
		{
			"inputs": [
				{
					"internalType": "uint256",
					"name": "tokenId",
					"type": "uint256"
				}
			],
			"name": "ownerOf",
			"outputs": [
				{
					"internalType": "address",
					"name": "",
					"type": "address"
				}
			],
			"stateMutability": "view",
			"type": "function"
		},
		{
			"inputs": [
				{
					"internalType": "address",
					"name": "from",
					"type": "address"
				},
				{
					"internalType": "address",
					"name": "to",
					"type": "address"
				},
				{
					"internalType": "uint256",
					"name": "tokenId",
					"type": "uint256"
				}
			],
			"name": "safeTransferFrom",
			"outputs": [],
			"stateMutability": "nonpayable",
			"type": "function"
		},
		{
			"inputs": [
				{
					"internalType": "address",
					"name": "from",
					"type": "address"
				},
				{
					"internalType": "address",
					"name": "to",
					"type": "address"
				},
				{
					"internalType": "uint256",
					"name": "tokenId",
					"type": "uint256"
				},
				{
					"internalType": "bytes",
					"name": "data",
					"type": "bytes"
				}
			],
			"name": "safeTransferFrom",
			"outputs": [],
			"stateMutability": "nonpayable",
			"type": "function"
		},
		{
			"inputs": [
				{
					"internalType": "address",
					"name": "operator",
					"type": "address"
				},
				{
					"internalType": "bool",
					"name": "approved",
					"type": "bool"
				}
			],
			"name": "setApprovalForAll",
			"outputs": [],
			"stateMutability": "nonpayable",
			"type": "function"
		},
		{
			"inputs": [
				{
					"internalType": "uint256",
					"name": "_streamAmount",
					"type": "uint256"
				},
				{
					"internalType": "uint256",
					"name": "_streamReference",
					"type": "uint256"
				},
				{
					"internalType": "uint256",
					"name": "_streamType",
					"type": "uint256"
				},
				{
					"internalType": "uint256",
					"name": "_streamMax",
					"type": "uint256"
				}
			],
			"name": "setNFT",
			"outputs": [],
			"stateMutability": "nonpayable",
			"type": "function"
		},
		{
			"inputs": [],
			"name": "slippage",
			"outputs": [
				{
					"internalType": "uint256",
					"name": "",
					"type": "uint256"
				}
			],
			"stateMutability": "view",
			"type": "function"
		},
		{
			"inputs": [],
			"name": "sourceToken",
			"outputs": [
				{
					"internalType": "contract IERC20",
					"name": "",
					"type": "address"
				}
			],
			"stateMutability": "view",
			"type": "function"
		},
		{
			"inputs": [],
			"name": "streamAmount",
			"outputs": [
				{
					"internalType": "uint256",
					"name": "",
					"type": "uint256"
				}
			],
			"stateMutability": "view",
			"type": "function"
		},
		{
			"inputs": [],
			"name": "streamMax",
			"outputs": [
				{
					"internalType": "uint256",
					"name": "",
					"type": "uint256"
				}
			],
			"stateMutability": "view",
			"type": "function"
		},
		{
			"inputs": [],
			"name": "streamReference",
			"outputs": [
				{
					"internalType": "uint256",
					"name": "",
					"type": "uint256"
				}
			],
			"stateMutability": "view",
			"type": "function"
		},
		{
			"inputs": [],
			"name": "streamType",
			"outputs": [
				{
					"internalType": "uint256",
					"name": "",
					"type": "uint256"
				}
			],
			"stateMutability": "view",
			"type": "function"
		},
		{
			"inputs": [
				{
					"internalType": "bytes4",
					"name": "interfaceId",
					"type": "bytes4"
				}
			],
			"name": "supportsInterface",
			"outputs": [
				{
					"internalType": "bool",
					"name": "",
					"type": "bool"
				}
			],
			"stateMutability": "view",
			"type": "function"
		},
		{
			"inputs": [],
			"name": "symbol",
			"outputs": [
				{
					"internalType": "string",
					"name": "",
					"type": "string"
				}
			],
			"stateMutability": "view",
			"type": "function"
		},
		{
			"inputs": [
				{
					"internalType": "uint256",
					"name": "tokenId",
					"type": "uint256"
				}
			],
			"name": "tokenURI",
			"outputs": [
				{
					"internalType": "string",
					"name": "",
					"type": "string"
				}
			],
			"stateMutability": "view",
			"type": "function"
		},
		{
			"inputs": [
				{
					"internalType": "address",
					"name": "from",
					"type": "address"
				},
				{
					"internalType": "address",
					"name": "to",
					"type": "address"
				},
				{
					"internalType": "uint256",
					"name": "tokenId",
					"type": "uint256"
				}
			],
			"name": "transferFrom",
			"outputs": [],
			"stateMutability": "nonpayable",
			"type": "function"
		},
		{
			"inputs": [
				{
					"internalType": "bytes32",
					"name": "_transferId",
					"type": "bytes32"
				},
				{
					"internalType": "uint256",
					"name": "_amount",
					"type": "uint256"
				},
				{
					"internalType": "address",
					"name": "_asset",
					"type": "address"
				},
				{
					"internalType": "address",
					"name": "_originSender",
					"type": "address"
				},
				{
					"internalType": "uint32",
					"name": "_origin",
					"type": "uint32"
				},
				{
					"internalType": "bytes",
					"name": "_callData",
					"type": "bytes"
				}
			],
			"name": "xReceive",
			"outputs": [
				{
					"internalType": "bytes",
					"name": "",
					"type": "bytes"
				}
			],
			"stateMutability": "nonpayable",
			"type": "function"
		},
		{
			"inputs": [
				{
					"internalType": "address",
					"name": "target",
					"type": "address"
				},
				{
					"internalType": "uint32",
					"name": "destinationDomain",
					"type": "uint32"
				},
				{
					"internalType": "uint256",
					"name": "amount",
					"type": "uint256"
				},
				{
					"internalType": "uint256",
					"name": "relayerFee",
					"type": "uint256"
				}
			],
			"name": "xSend",
			"outputs": [],
			"stateMutability": "payable",
			"type": "function"
		}
	],
	"bytecode": "0x60c060405261271060a0908152503480156200001a57600080fd5b506040516200600638038062006006833981810160405281019062000040919062000e94565b6040518060400160405280600881526020017f466c6f77794e46540000000000000000000000000000000000000000000000008152506040518060400160405280600481526020017f464e4654000000000000000000000000000000000000000000000000000000008152508160009081620000bd919062001180565b508060019081620000cf919062001180565b5050506000600c819055506000600b8190555062015180600e819055508373ffffffffffffffffffffffffffffffffffffffff1660808173ffffffffffffffffffffffffffffffffffffffff168152505082600960006101000a81548173ffffffffffffffffffffffffffffffffffffffff021916908373ffffffffffffffffffffffffffffffffffffffff16021790555081600a60006101000a81548173ffffffffffffffffffffffffffffffffffffffff021916908373ffffffffffffffffffffffffffffffffffffffff16021790555080600760006101000a81548173ffffffffffffffffffffffffffffffffffffffff021916908373ffffffffffffffffffffffffffffffffffffffff160217905550620001fa60086200025460201b620017221760201c565b60006200021360086200026a60201b620017381760201c565b90506200022733826200027860201b60201c565b62000249816200023d836200029e60201b60201c565b6200032c60201b60201c565b505050505062001e42565b6001816000016000828254019250508190555050565b600081600001549050919050565b6200029a828260405180602001604052806000815250620003a660201b60201c565b5050565b60606000620002b8836200041460201b620017461760201c565b620002c984620004f860201b60201c565b604051602001620002dc9291906200152b565b604051602081830303815290604052905062000303816200056e60201b620018141760201c565b604051602001620003159190620015fe565b604051602081830303815290604052915050919050565b6200033d82620006e460201b60201c565b6200037f576040517f08c379a00000000000000000000000000000000000000000000000000000000081526004016200037690620016ab565b60405180910390fd5b80600660008481526020019081526020016000209081620003a1919062001180565b505050565b620003b883836200072d60201b60201c565b620003cd60008484846200097360201b60201c565b6200040f576040517f08c379a0000000000000000000000000000000000000000000000000000000008152600401620004069062001743565b60405180910390fd5b505050565b606060006001620004308462000b1c60201b620019771760201c565b01905060008167ffffffffffffffff81111562000452576200045162000f11565b5b6040519080825280601f01601f191660200182016040528015620004855781602001600182028036833780820191505090505b509050600082602001820190505b600115620004ed578080600190039150507f3031323334353637383961626364656600000000000000000000000000000000600a86061a8153600a8581620004e057620004df62001765565b5b0494506000850362000493575b819350505050919050565b606060006200050c62000c8860201b60201c565b6040516020016200051e9190620019e6565b604051602081830303815290604052905062000545816200056e60201b620018141760201c565b60405160200162000557919062001a9d565b604051602081830303815290604052915050919050565b606060008251036200059257604051806020016040528060008152509050620006df565b600060405180606001604052806040815260200162005fc66040913990506000600360028551620005c4919062001af2565b620005d0919062001b2d565b6004620005de919062001b65565b67ffffffffffffffff811115620005fa57620005f962000f11565b5b6040519080825280601f01601f1916602001820160405280156200062d5781602001600182028036833780820191505090505b509050600182016020820185865187015b808210156200069b576003820191508151603f8160121c168501518453600184019350603f81600c1c168501518453600184019350603f8160061c168501518453600184019350603f81168501518453600184019350506200063e565b5050600386510660018114620006ba5760028114620006ce57620006d6565b603d6001830353603d6002830353620006d6565b603d60018303535b50505080925050505b919050565b60008073ffffffffffffffffffffffffffffffffffffffff166200070e8362000db660201b60201c565b73ffffffffffffffffffffffffffffffffffffffff1614159050919050565b600073ffffffffffffffffffffffffffffffffffffffff168273ffffffffffffffffffffffffffffffffffffffff16036200079f576040517f08c379a0000000000000000000000000000000000000000000000000000000008152600401620007969062001c00565b60405180910390fd5b620007b081620006e460201b60201c565b15620007f3576040517f08c379a0000000000000000000000000000000000000000000000000000000008152600401620007ea9062001c72565b60405180910390fd5b6200080960008383600162000df360201b60201c565b6200081a81620006e460201b60201c565b156200085d576040517f08c379a0000000000000000000000000000000000000000000000000000000008152600401620008549062001c72565b60405180910390fd5b6001600360008473ffffffffffffffffffffffffffffffffffffffff1673ffffffffffffffffffffffffffffffffffffffff16815260200190815260200160002060008282540192505081905550816002600083815260200190815260200160002060006101000a81548173ffffffffffffffffffffffffffffffffffffffff021916908373ffffffffffffffffffffffffffffffffffffffff160217905550808273ffffffffffffffffffffffffffffffffffffffff16600073ffffffffffffffffffffffffffffffffffffffff167fddf252ad1be2c89b69c2b068fc378daa952ba7f163c4a11628f55a4df523b3ef60405160405180910390a46200096f60008383600162000df960201b60201c565b5050565b6000620009a18473ffffffffffffffffffffffffffffffffffffffff1662000dff60201b62001aca1760201c565b1562000b0f578373ffffffffffffffffffffffffffffffffffffffff1663150b7a02620009d362000e2260201b60201c565b8786866040518563ffffffff1660e01b8152600401620009f7949392919062001d24565b6020604051808303816000875af192505050801562000a3657506040513d601f19601f8201168201806040525081019062000a33919062001dd5565b60015b62000abe573d806000811462000a69576040519150601f19603f3d011682016040523d82523d6000602084013e62000a6e565b606091505b50600081510362000ab6576040517f08c379a000000000000000000000000000000000000000000000000000000000815260040162000aad9062001743565b60405180910390fd5b805181602001fd5b63150b7a0260e01b7bffffffffffffffffffffffffffffffffffffffffffffffffffffffff1916817bffffffffffffffffffffffffffffffffffffffffffffffffffffffff19161491505062000b14565b600190505b949350505050565b600080600090507a184f03e93ff9f4daa797ed6e38ed64bf6a1f010000000000000000831062000b7e577a184f03e93ff9f4daa797ed6e38ed64bf6a1f010000000000000000838162000b745762000b7362001765565b5b0492506040810190505b6d04ee2d6d415b85acef8100000000831062000bbf576d04ee2d6d415b85acef8100000000838162000bb55762000bb462001765565b5b0492506020810190505b662386f26fc10000831062000bf257662386f26fc10000838162000be85762000be762001765565b5b0492506010810190505b6305f5e100831062000c1f576305f5e100838162000c155762000c1462001765565b5b0492506008810190505b612710831062000c4857612710838162000c3e5762000c3d62001765565b5b0492506004810190505b6064831062000c6f576064838162000c655762000c6462001765565b5b0492506002810190505b600a831062000c7f576001810190505b80915050919050565b60606000600b540362000cb55762000cad600c546200041460201b620017461760201c565b905062000db3565b6000600d540362000d3457600c54600b544262000cd3919062001e07565b1062000cf85762000cf060006200041460201b620017461760201c565b905062000db3565b62000d2c600b544262000d0c919062001e07565b600c5462000d1b919062001e07565b6200041460201b620017461760201c565b905062000db3565b600e54600b544262000d47919062001e07565b600c5462000d56919062001af2565b1062000d7c5762000d74600e546200041460201b620017461760201c565b905062000db3565b62000db0600b544262000d90919062001e07565b600c5462000d9f919062001af2565b6200041460201b620017461760201c565b90505b90565b60006002600083815260200190815260200160002060009054906101000a900473ffffffffffffffffffffffffffffffffffffffff169050919050565b50505050565b50505050565b6000808273ffffffffffffffffffffffffffffffffffffffff163b119050919050565b600033905090565b600080fd5b600073ffffffffffffffffffffffffffffffffffffffff82169050919050565b600062000e5c8262000e2f565b9050919050565b62000e6e8162000e4f565b811462000e7a57600080fd5b50565b60008151905062000e8e8162000e63565b92915050565b6000806000806080858703121562000eb15762000eb062000e2a565b5b600062000ec18782880162000e7d565b945050602062000ed48782880162000e7d565b935050604062000ee78782880162000e7d565b925050606062000efa8782880162000e7d565b91505092959194509250565b600081519050919050565b7f4e487b7100000000000000000000000000000000000000000000000000000000600052604160045260246000fd5b7f4e487b7100000000000000000000000000000000000000000000000000000000600052602260045260246000fd5b6000600282049050600182168062000f8857607f821691505b60208210810362000f9e5762000f9d62000f40565b5b50919050565b60008190508160005260206000209050919050565b60006020601f8301049050919050565b600082821b905092915050565b600060088302620010087fffffffffffffffffffffffffffffffffffffffffffffffffffffffffffffffff8262000fc9565b62001014868362000fc9565b95508019841693508086168417925050509392505050565b6000819050919050565b6000819050919050565b6000620010616200105b62001055846200102c565b62001036565b6200102c565b9050919050565b6000819050919050565b6200107d8362001040565b620010956200108c8262001068565b84845462000fd6565b825550505050565b600090565b620010ac6200109d565b620010b981848462001072565b505050565b5b81811015620010e157620010d5600082620010a2565b600181019050620010bf565b5050565b601f8211156200113057620010fa8162000fa4565b620011058462000fb9565b8101602085101562001115578190505b6200112d620011248562000fb9565b830182620010be565b50505b505050565b600082821c905092915050565b6000620011556000198460080262001135565b1980831691505092915050565b600062001170838362001142565b9150826002028217905092915050565b6200118b8262000f06565b67ffffffffffffffff811115620011a757620011a662000f11565b5b620011b3825462000f6f565b620011c0828285620010e5565b600060209050601f831160018114620011f85760008415620011e3578287015190505b620011ef858262001162565b8655506200125f565b601f198416620012088662000fa4565b60005b8281101562001232578489015182556001820191506020850194506020810190506200120b565b868310156200125257848901516200124e601f89168262001142565b8355505b6001600288020188555050505b505050505050565b600081905092915050565b7f7b00000000000000000000000000000000000000000000000000000000000000600082015250565b6000620012aa60018362001267565b9150620012b78262001272565b600182019050919050565b7f226e616d65223a2022466c6f7779204e46540000000000000000000000000000600082015250565b6000620012fa60128362001267565b91506200130782620012c2565b601282019050919050565b60005b838110156200133257808201518184015260208101905062001315565b60008484015250505050565b60006200134b8262000f06565b62001357818562001267565b93506200136981856020860162001312565b80840191505092915050565b7f222c000000000000000000000000000000000000000000000000000000000000600082015250565b6000620013ad60028362001267565b9150620013ba8262001375565b600282019050919050565b7f226465736372697074696f6e223a20224e465420746861742063616e2062652060008201527f73747265616d65642063726f73732d636861696e2e222c000000000000000000602082015250565b60006200142360378362001267565b91506200143082620013c5565b603782019050919050565b7f22696d616765223a202200000000000000000000000000000000000000000000600082015250565b600062001473600a8362001267565b915062001480826200143b565b600a82019050919050565b7f2200000000000000000000000000000000000000000000000000000000000000600082015250565b6000620014c360018362001267565b9150620014d0826200148b565b600182019050919050565b7f7d00000000000000000000000000000000000000000000000000000000000000600082015250565b60006200151360018362001267565b91506200152082620014db565b600182019050919050565b600062001538826200129b565b91506200154582620012eb565b91506200155382856200133e565b915062001560826200139e565b91506200156d8262001414565b91506200157a8262001464565b91506200158882846200133e565b91506200159582620014b4565b9150620015a28262001504565b91508190509392505050565b7f646174613a6170706c69636174696f6e2f6a736f6e3b6261736536342c000000600082015250565b6000620015e6601d8362001267565b9150620015f382620015ae565b601d82019050919050565b60006200160b82620015d7565b91506200161982846200133e565b915081905092915050565b600082825260208201905092915050565b7f45524337323155524953746f726167653a2055524920736574206f66206e6f6e60008201527f6578697374656e7420746f6b656e000000000000000000000000000000000000602082015250565b600062001693602e8362001624565b9150620016a08262001635565b604082019050919050565b60006020820190508181036000830152620016c68162001684565b9050919050565b7f4552433732313a207472616e7366657220746f206e6f6e20455243373231526560008201527f63656976657220696d706c656d656e7465720000000000000000000000000000602082015250565b60006200172b60328362001624565b91506200173882620016cd565b604082019050919050565b600060208201905081810360008301526200175e816200171c565b9050919050565b7f4e487b7100000000000000000000000000000000000000000000000000000000600052601260045260246000fd5b7f3c7376672077696474683d223130302522206865696768743d2231303025222060008201527f76696577426f783d2230203020323030203230302220786d6c6e733d2268747460208201527f703a2f2f7777772e77332e6f72672f323030302f737667223e00000000000000604082015250565b60006200181860598362001267565b9150620018258262001794565b605982019050919050565b7f3c7465787420783d223130302220793d223130302220746578742d616e63686f60008201527f723d226d6964646c65223e000000000000000000000000000000000000000000602082015250565b60006200188e602b8362001267565b91506200189b8262001830565b602b82019050919050565b7f266c743b00000000000000000000000000000000000000000000000000000000600082015250565b6000620018de60048362001267565b9150620018eb82620018a6565b600482019050919050565b7f2667743b00000000000000000000000000000000000000000000000000000000600082015250565b60006200192e60048362001267565b91506200193b82620018f6565b600482019050919050565b7f3c2f746578743e00000000000000000000000000000000000000000000000000600082015250565b60006200197e60078362001267565b91506200198b8262001946565b600782019050919050565b7f3c2f7376673e0000000000000000000000000000000000000000000000000000600082015250565b6000620019ce60068362001267565b9150620019db8262001996565b600682019050919050565b6000620019f38262001809565b915062001a00826200187f565b915062001a0d82620018cf565b915062001a1b82846200133e565b915062001a28826200191f565b915062001a35826200196f565b915062001a4282620019bf565b915081905092915050565b7f646174613a696d6167652f7376672b786d6c3b6261736536342c000000000000600082015250565b600062001a85601a8362001267565b915062001a928262001a4d565b601a82019050919050565b600062001aaa8262001a76565b915062001ab882846200133e565b915081905092915050565b7f4e487b7100000000000000000000000000000000000000000000000000000000600052601160045260246000fd5b600062001aff826200102c565b915062001b0c836200102c565b925082820190508082111562001b275762001b2662001ac3565b5b92915050565b600062001b3a826200102c565b915062001b47836200102c565b92508262001b5a5762001b5962001765565b5b828204905092915050565b600062001b72826200102c565b915062001b7f836200102c565b925082820262001b8f816200102c565b9150828204841483151762001ba95762001ba862001ac3565b5b5092915050565b7f4552433732313a206d696e7420746f20746865207a65726f2061646472657373600082015250565b600062001be860208362001624565b915062001bf58262001bb0565b602082019050919050565b6000602082019050818103600083015262001c1b8162001bd9565b9050919050565b7f4552433732313a20746f6b656e20616c7265616479206d696e74656400000000600082015250565b600062001c5a601c8362001624565b915062001c678262001c22565b602082019050919050565b6000602082019050818103600083015262001c8d8162001c4b565b9050919050565b62001c9f8162000e4f565b82525050565b62001cb0816200102c565b82525050565b600081519050919050565b600082825260208201905092915050565b6000601f19601f8301169050919050565b600062001cf08262001cb6565b62001cfc818562001cc1565b935062001d0e81856020860162001312565b62001d198162001cd2565b840191505092915050565b600060808201905062001d3b600083018762001c94565b62001d4a602083018662001c94565b62001d59604083018562001ca5565b818103606083015262001d6d818462001ce3565b905095945050505050565b60007fffffffff0000000000000000000000000000000000000000000000000000000082169050919050565b62001daf8162001d78565b811462001dbb57600080fd5b50565b60008151905062001dcf8162001da4565b92915050565b60006020828403121562001dee5762001ded62000e2a565b5b600062001dfe8482850162001dbe565b91505092915050565b600062001e14826200102c565b915062001e21836200102c565b925082820390508181111562001e3c5762001e3b62001ac3565b5b92915050565b60805160a05161414962001e7d60003960008181610c580152610ff0015260008181610ee001528181610f8c015261145601526141496000f3fe6080604052600436106101d85760003560e01c80635f8aaa6911610102578063b88d4fde11610095578063e985e9c511610064578063e985e9c5146106cc578063f6bb344e14610709578063f7cac8bb14610734578063fd614f411461075f576101d8565b8063b88d4fde14610610578063c87b56dd14610639578063de4b054814610676578063dfabd0c5146106a1576101d8565b806395d89b41116100d157806395d89b4114610563578063a22cb4651461058e578063aa46a400146105b7578063b619064f146105e2576101d8565b80635f8aaa69146104935780636352211e146104be57806368c0683c146104fb57806370a0823114610526576101d8565b806323b872dd1161017a57806342842e0e1161014957806342842e0e146103e657806348a3b4a41461040f578063584f3c3f1461043a578063593ce1bd14610477576101d8565b806323b872dd1461032c57806329e3ab17146103555780633bb3a24d1461037e5780633e032a3b146103bb576101d8565b8063095ea7b3116101b6578063095ea7b3146102825780630b474949146102ab57806314126d5c146102d6578063188ec35614610301576101d8565b806301ffc9a7146101dd57806306fdde031461021a578063081812fc14610245575b600080fd5b3480156101e957600080fd5b5061020460048036038101906101ff9190612436565b61079c565b604051610211919061247e565b60405180910390f35b34801561022657600080fd5b5061022f61087e565b60405161023c9190612529565b60405180910390f35b34801561025157600080fd5b5061026c60048036038101906102679190612581565b610910565b60405161027991906125ef565b60405180910390f35b34801561028e57600080fd5b506102a960048036038101906102a49190612636565b610956565b005b3480156102b757600080fd5b506102c0610a6d565b6040516102cd91906126d5565b60405180910390f35b3480156102e257600080fd5b506102eb610a93565b6040516102f891906126ff565b60405180910390f35b34801561030d57600080fd5b50610316610a99565b60405161032391906126ff565b60405180910390f35b34801561033857600080fd5b50610353600480360381019061034e919061271a565b610aa1565b005b34801561036157600080fd5b5061037c6004803603810190610377919061276d565b610b01565b005b34801561038a57600080fd5b506103a560048036038101906103a09190612581565b610bee565b6040516103b29190612529565b60405180910390f35b3480156103c757600080fd5b506103d0610c56565b6040516103dd91906126ff565b60405180910390f35b3480156103f257600080fd5b5061040d6004803603810190610408919061271a565b610c7a565b005b34801561041b57600080fd5b50610424610c9a565b60405161043191906125ef565b60405180910390f35b34801561044657600080fd5b50610461600480360381019061045c9190612581565b610cc0565b60405161046e9190612529565b60405180910390f35b610491600480360381019061048c9190612810565b610d1d565b005b34801561049f57600080fd5b506104a861119a565b6040516104b591906126d5565b60405180910390f35b3480156104ca57600080fd5b506104e560048036038101906104e09190612581565b6111c0565b6040516104f291906125ef565b60405180910390f35b34801561050757600080fd5b50610510611246565b60405161051d91906126ff565b60405180910390f35b34801561053257600080fd5b5061054d60048036038101906105489190612877565b61124c565b60405161055a91906126ff565b60405180910390f35b34801561056f57600080fd5b50610578611303565b6040516105859190612529565b60405180910390f35b34801561059a57600080fd5b506105b560048036038101906105b091906128d0565b611395565b005b3480156105c357600080fd5b506105cc6113ab565b6040516105d991906126ff565b60405180910390f35b3480156105ee57600080fd5b506105f76113b7565b6040516106079493929190612910565b60405180910390f35b34801561061c57600080fd5b5061063760048036038101906106329190612a8a565b6113d7565b005b34801561064557600080fd5b50610660600480360381019061065b9190612581565b611439565b60405161066d9190612529565b60405180910390f35b34801561068257600080fd5b5061068b611454565b6040516106989190612b2e565b60405180910390f35b3480156106ad57600080fd5b506106b6611478565b6040516106c391906126ff565b60405180910390f35b3480156106d857600080fd5b506106f360048036038101906106ee9190612b49565b61147e565b604051610700919061247e565b60405180910390f35b34801561071557600080fd5b5061071e611512565b60405161072b91906126ff565b60405180910390f35b34801561074057600080fd5b50610749611518565b6040516107569190612529565b60405180910390f35b34801561076b57600080fd5b5061078660048036038101906107819190612bbf565b6115ef565b6040516107939190612cbd565b60405180910390f35b60007f80ac58cd000000000000000000000000000000000000000000000000000000007bffffffffffffffffffffffffffffffffffffffffffffffffffffffff1916827bffffffffffffffffffffffffffffffffffffffffffffffffffffffff1916148061086757507f5b5e139f000000000000000000000000000000000000000000000000000000007bffffffffffffffffffffffffffffffffffffffffffffffffffffffff1916827bffffffffffffffffffffffffffffffffffffffffffffffffffffffff1916145b80610877575061087682611aed565b5b9050919050565b60606000805461088d90612d0e565b80601f01602080910402602001604051908101604052809291908181526020018280546108b990612d0e565b80156109065780601f106108db57610100808354040283529160200191610906565b820191906000526020600020905b8154815290600101906020018083116108e957829003601f168201915b5050505050905090565b600061091b82611b57565b6004600083815260200190815260200160002060009054906101000a900473ffffffffffffffffffffffffffffffffffffffff169050919050565b6000610961826111c0565b90508073ffffffffffffffffffffffffffffffffffffffff168373ffffffffffffffffffffffffffffffffffffffff16036109d1576040517f08c379a00000000000000000000000000000000000000000000000000000000081526004016109c890612db1565b60405180910390fd5b8073ffffffffffffffffffffffffffffffffffffffff166109f0611ba2565b73ffffffffffffffffffffffffffffffffffffffff161480610a1f5750610a1e81610a19611ba2565b61147e565b5b610a5e576040517f08c379a0000000000000000000000000000000000000000000000000000000008152600401610a5590612e43565b60405180910390fd5b610a688383611baa565b505050565b600a60009054906101000a900473ffffffffffffffffffffffffffffffffffffffff1681565b600e5481565b600042905090565b610ab2610aac611ba2565b82611c63565b610af1576040517f08c379a0000000000000000000000000000000000000000000000000000000008152600401610ae890612ed5565b60405180910390fd5b610afc838383611cf8565b505050565b83600c8190555082600b8190555081600d8190555080600e81905550600760009054906101000a900473ffffffffffffffffffffffffffffffffffffffff1673ffffffffffffffffffffffffffffffffffffffff1663ba3d69d77320136f73c536db9d061b078146d7694cd4bd0aea610b7a60016111c0565b604051602001610b89906130a2565b6040516020818303038152906040526040518463ffffffff1660e01b8152600401610bb6939291906130f9565b600060405180830381600087803b158015610bd057600080fd5b505af1158015610be4573d6000803e3d6000fd5b5050505050505050565b60606000610bfb83611746565b610c0484610cc0565b604051602001610c159291906133a2565b6040516020818303038152906040529050610c2f81611814565b604051602001610c3f919061345f565b604051602081830303815290604052915050919050565b7f000000000000000000000000000000000000000000000000000000000000000081565b610c95838383604051806020016040528060008152506113d7565b505050565b600760009054906101000a900473ffffffffffffffffffffffffffffffffffffffff1681565b60606000610ccc611518565b604051602001610cdc91906136bb565b6040516020818303038152906040529050610cf681611814565b604051602001610d069190613760565b604051602081830303815290604052915050919050565b81600960009054906101000a900473ffffffffffffffffffffffffffffffffffffffff1673ffffffffffffffffffffffffffffffffffffffff1663dd62ed3e33306040518363ffffffff1660e01b8152600401610d7b929190613782565b602060405180830381865afa158015610d98573d6000803e3d6000fd5b505050506040513d601f19601f82011682018060405250810190610dbc91906137c0565b1015610dfd576040517f08c379a0000000000000000000000000000000000000000000000000000000008152600401610df490613839565b60405180910390fd5b600960009054906101000a900473ffffffffffffffffffffffffffffffffffffffff1673ffffffffffffffffffffffffffffffffffffffff166323b872dd3330856040518463ffffffff1660e01b8152600401610e5c93929190613859565b6020604051808303816000875af1158015610e7b573d6000803e3d6000fd5b505050506040513d601f19601f82011682018060405250810190610e9f91906138a5565b50600960009054906101000a900473ffffffffffffffffffffffffffffffffffffffff1673ffffffffffffffffffffffffffffffffffffffff1663095ea7b37f0000000000000000000000000000000000000000000000000000000000000000846040518363ffffffff1660e01b8152600401610f1d9291906138d2565b6020604051808303816000875af1158015610f3c573d6000803e3d6000fd5b505050506040513d601f19601f82011682018060405250810190610f6091906138a5565b506000429050600081604051602001610f7991906126ff565b60405160208183030381529060405290507f000000000000000000000000000000000000000000000000000000000000000073ffffffffffffffffffffffffffffffffffffffff16638aac16ba848789600960009054906101000a900473ffffffffffffffffffffffffffffffffffffffff16338a7f0000000000000000000000000000000000000000000000000000000000000000896040518963ffffffff1660e01b8152600401611032979695949392919061390a565b60206040518083038185885af1158015611050573d6000803e3d6000fd5b50505050506040513d601f19601f820116820180604052508101906110759190613995565b506000600b540361109d57600e54600c819055506000600d8190555081600b819055506110c7565b600b54826110ab91906139f1565b600e546110b891906139f1565b600c819055506000600b819055505b600760009054906101000a900473ffffffffffffffffffffffffffffffffffffffff1673ffffffffffffffffffffffffffffffffffffffff1663ba3d69d77320136f73c536db9d061b078146d7694cd4bd0aea61112460016111c0565b60405160200161113390613ae3565b6040516020818303038152906040526040518463ffffffff1660e01b8152600401611160939291906130f9565b600060405180830381600087803b15801561117a57600080fd5b505af115801561118e573d6000803e3d6000fd5b50505050505050505050565b600960009054906101000a900473ffffffffffffffffffffffffffffffffffffffff1681565b6000806111cc83611ff1565b9050600073ffffffffffffffffffffffffffffffffffffffff168173ffffffffffffffffffffffffffffffffffffffff160361123d576040517f08c379a000000000000000000000000000000000000000000000000000000000815260040161123490613b86565b60405180910390fd5b80915050919050565b600d5481565b60008073ffffffffffffffffffffffffffffffffffffffff168273ffffffffffffffffffffffffffffffffffffffff16036112bc576040517f08c379a00000000000000000000000000000000000000000000000000000000081526004016112b390613c18565b60405180910390fd5b600360008373ffffffffffffffffffffffffffffffffffffffff1673ffffffffffffffffffffffffffffffffffffffff168152602001908152602001600020549050919050565b60606001805461131290612d0e565b80601f016020809104026020016040519081016040528092919081815260200182805461133e90612d0e565b801561138b5780601f106113605761010080835404028352916020019161138b565b820191906000526020600020905b81548152906001019060200180831161136e57829003601f168201915b5050505050905090565b6113a76113a0611ba2565b838361202e565b5050565b60088060000154905081565b600080600080600b54600c54600d54600e54935093509350935090919293565b6113e86113e2611ba2565b83611c63565b611427576040517f08c379a000000000000000000000000000000000000000000000000000000000815260040161141e90612ed5565b60405180910390fd5b6114338484848461219a565b50505050565b606061144482611b57565b61144d82610bee565b9050919050565b7f000000000000000000000000000000000000000000000000000000000000000081565b600c5481565b6000600560008473ffffffffffffffffffffffffffffffffffffffff1673ffffffffffffffffffffffffffffffffffffffff16815260200190815260200160002060008373ffffffffffffffffffffffffffffffffffffffff1673ffffffffffffffffffffffffffffffffffffffff16815260200190815260200160002060009054906101000a900460ff16905092915050565b600b5481565b60606000600b54036115365761152f600c54611746565b90506115ec565b6000600d540361159157600c54600b544261155191906139f1565b10611567576115606000611746565b90506115ec565b61158a600b544261157891906139f1565b600c5461158591906139f1565b611746565b90506115ec565b600e54600b54426115a291906139f1565b600c546115af9190613c38565b106115c6576115bf600e54611746565b90506115ec565b6115e9600b54426115d791906139f1565b600c546115e49190613c38565b611746565b90505b90565b606060008280602001905181019061160791906137c0565b90506000600b540361162f576000600c819055506001600d8190555080600b8190555061164c565b600b548161163d91906139f1565b600c819055506000600b819055505b600760009054906101000a900473ffffffffffffffffffffffffffffffffffffffff1673ffffffffffffffffffffffffffffffffffffffff1663ba3d69d77320136f73c536db9d061b078146d7694cd4bd0aea6116a960016111c0565b6040516020016116b890613d2a565b6040516020818303038152906040526040518463ffffffff1660e01b81526004016116e5939291906130f9565b600060405180830381600087803b1580156116ff57600080fd5b505af1158015611713573d6000803e3d6000fd5b50505050509695505050505050565b6001816000016000828254019250508190555050565b600081600001549050919050565b60606000600161175584611977565b01905060008167ffffffffffffffff8111156117745761177361295f565b5b6040519080825280601f01601f1916602001820160405280156117a65781602001600182028036833780820191505090505b509050600082602001820190505b600115611809578080600190039150507f3031323334353637383961626364656600000000000000000000000000000000600a86061a8153600a85816117fd576117fc613d81565b5b049450600085036117b4575b819350505050919050565b6060600082510361183657604051806020016040528060008152509050611972565b60006040518060600160405280604081526020016140d460409139905060006003600285516118659190613c38565b61186f9190613db0565b600461187b9190613de1565b67ffffffffffffffff8111156118945761189361295f565b5b6040519080825280601f01601f1916602001820160405280156118c65781602001600182028036833780820191505090505b509050600182016020820185865187015b80821015611932576003820191508151603f8160121c168501518453600184019350603f81600c1c168501518453600184019350603f8160061c168501518453600184019350603f81168501518453600184019350506118d7565b505060038651066001811461194e576002811461196157611969565b603d6001830353603d6002830353611969565b603d60018303535b50505080925050505b919050565b600080600090507a184f03e93ff9f4daa797ed6e38ed64bf6a1f01000000000000000083106119d5577a184f03e93ff9f4daa797ed6e38ed64bf6a1f01000000000000000083816119cb576119ca613d81565b5b0492506040810190505b6d04ee2d6d415b85acef81000000008310611a12576d04ee2d6d415b85acef81000000008381611a0857611a07613d81565b5b0492506020810190505b662386f26fc100008310611a4157662386f26fc100008381611a3757611a36613d81565b5b0492506010810190505b6305f5e1008310611a6a576305f5e1008381611a6057611a5f613d81565b5b0492506008810190505b6127108310611a8f576127108381611a8557611a84613d81565b5b0492506004810190505b60648310611ab25760648381611aa857611aa7613d81565b5b0492506002810190505b600a8310611ac1576001810190505b80915050919050565b6000808273ffffffffffffffffffffffffffffffffffffffff163b119050919050565b60007f01ffc9a7000000000000000000000000000000000000000000000000000000007bffffffffffffffffffffffffffffffffffffffffffffffffffffffff1916827bffffffffffffffffffffffffffffffffffffffffffffffffffffffff1916149050919050565b611b60816121f6565b611b9f576040517f08c379a0000000000000000000000000000000000000000000000000000000008152600401611b9690613b86565b60405180910390fd5b50565b600033905090565b816004600083815260200190815260200160002060006101000a81548173ffffffffffffffffffffffffffffffffffffffff021916908373ffffffffffffffffffffffffffffffffffffffff160217905550808273ffffffffffffffffffffffffffffffffffffffff16611c1d836111c0565b73ffffffffffffffffffffffffffffffffffffffff167f8c5be1e5ebec7d5bd14f71427d1e84f3dd0314c0f7b2291e5b200ac8c7c3b92560405160405180910390a45050565b600080611c6f836111c0565b90508073ffffffffffffffffffffffffffffffffffffffff168473ffffffffffffffffffffffffffffffffffffffff161480611cb15750611cb0818561147e565b5b80611cef57508373ffffffffffffffffffffffffffffffffffffffff16611cd784610910565b73ffffffffffffffffffffffffffffffffffffffff16145b91505092915050565b8273ffffffffffffffffffffffffffffffffffffffff16611d18826111c0565b73ffffffffffffffffffffffffffffffffffffffff1614611d6e576040517f08c379a0000000000000000000000000000000000000000000000000000000008152600401611d6590613e95565b60405180910390fd5b600073ffffffffffffffffffffffffffffffffffffffff168273ffffffffffffffffffffffffffffffffffffffff1603611ddd576040517f08c379a0000000000000000000000000000000000000000000000000000000008152600401611dd490613f27565b60405180910390fd5b611dea8383836001612237565b8273ffffffffffffffffffffffffffffffffffffffff16611e0a826111c0565b73ffffffffffffffffffffffffffffffffffffffff1614611e60576040517f08c379a0000000000000000000000000000000000000000000000000000000008152600401611e5790613e95565b60405180910390fd5b6004600082815260200190815260200160002060006101000a81549073ffffffffffffffffffffffffffffffffffffffff02191690556001600360008573ffffffffffffffffffffffffffffffffffffffff1673ffffffffffffffffffffffffffffffffffffffff168152602001908152602001600020600082825403925050819055506001600360008473ffffffffffffffffffffffffffffffffffffffff1673ffffffffffffffffffffffffffffffffffffffff16815260200190815260200160002060008282540192505081905550816002600083815260200190815260200160002060006101000a81548173ffffffffffffffffffffffffffffffffffffffff021916908373ffffffffffffffffffffffffffffffffffffffff160217905550808273ffffffffffffffffffffffffffffffffffffffff168473ffffffffffffffffffffffffffffffffffffffff167fddf252ad1be2c89b69c2b068fc378daa952ba7f163c4a11628f55a4df523b3ef60405160405180910390a4611fec838383600161223d565b505050565b60006002600083815260200190815260200160002060009054906101000a900473ffffffffffffffffffffffffffffffffffffffff169050919050565b8173ffffffffffffffffffffffffffffffffffffffff168373ffffffffffffffffffffffffffffffffffffffff160361209c576040517f08c379a000000000000000000000000000000000000000000000000000000000815260040161209390613f93565b60405180910390fd5b80600560008573ffffffffffffffffffffffffffffffffffffffff1673ffffffffffffffffffffffffffffffffffffffff16815260200190815260200160002060008473ffffffffffffffffffffffffffffffffffffffff1673ffffffffffffffffffffffffffffffffffffffff16815260200190815260200160002060006101000a81548160ff0219169083151502179055508173ffffffffffffffffffffffffffffffffffffffff168373ffffffffffffffffffffffffffffffffffffffff167f17307eab39ab6107e8899845ad3d59bd9653f200f220920489ca2b5937696c318360405161218d919061247e565b60405180910390a3505050565b6121a5848484611cf8565b6121b184848484612243565b6121f0576040517f08c379a00000000000000000000000000000000000000000000000000000000081526004016121e790614025565b60405180910390fd5b50505050565b60008073ffffffffffffffffffffffffffffffffffffffff1661221883611ff1565b73ffffffffffffffffffffffffffffffffffffffff1614159050919050565b50505050565b50505050565b60006122648473ffffffffffffffffffffffffffffffffffffffff16611aca565b156123bd578373ffffffffffffffffffffffffffffffffffffffff1663150b7a0261228d611ba2565b8786866040518563ffffffff1660e01b81526004016122af9493929190614045565b6020604051808303816000875af19250505080156122eb57506040513d601f19601f820116820180604052508101906122e891906140a6565b60015b61236d573d806000811461231b576040519150601f19603f3d011682016040523d82523d6000602084013e612320565b606091505b506000815103612365576040517f08c379a000000000000000000000000000000000000000000000000000000000815260040161235c90614025565b60405180910390fd5b805181602001fd5b63150b7a0260e01b7bffffffffffffffffffffffffffffffffffffffffffffffffffffffff1916817bffffffffffffffffffffffffffffffffffffffffffffffffffffffff1916149150506123c2565b600190505b949350505050565b6000604051905090565b600080fd5b600080fd5b60007fffffffff0000000000000000000000000000000000000000000000000000000082169050919050565b612413816123de565b811461241e57600080fd5b50565b6000813590506124308161240a565b92915050565b60006020828403121561244c5761244b6123d4565b5b600061245a84828501612421565b91505092915050565b60008115159050919050565b61247881612463565b82525050565b6000602082019050612493600083018461246f565b92915050565b600081519050919050565b600082825260208201905092915050565b60005b838110156124d35780820151818401526020810190506124b8565b60008484015250505050565b6000601f19601f8301169050919050565b60006124fb82612499565b61250581856124a4565b93506125158185602086016124b5565b61251e816124df565b840191505092915050565b6000602082019050818103600083015261254381846124f0565b905092915050565b6000819050919050565b61255e8161254b565b811461256957600080fd5b50565b60008135905061257b81612555565b92915050565b600060208284031215612597576125966123d4565b5b60006125a58482850161256c565b91505092915050565b600073ffffffffffffffffffffffffffffffffffffffff82169050919050565b60006125d9826125ae565b9050919050565b6125e9816125ce565b82525050565b600060208201905061260460008301846125e0565b92915050565b612613816125ce565b811461261e57600080fd5b50565b6000813590506126308161260a565b92915050565b6000806040838503121561264d5761264c6123d4565b5b600061265b85828601612621565b925050602061266c8582860161256c565b9150509250929050565b6000819050919050565b600061269b612696612691846125ae565b612676565b6125ae565b9050919050565b60006126ad82612680565b9050919050565b60006126bf826126a2565b9050919050565b6126cf816126b4565b82525050565b60006020820190506126ea60008301846126c6565b92915050565b6126f98161254b565b82525050565b600060208201905061271460008301846126f0565b92915050565b600080600060608486031215612733576127326123d4565b5b600061274186828701612621565b935050602061275286828701612621565b92505060406127638682870161256c565b9150509250925092565b60008060008060808587031215612787576127866123d4565b5b60006127958782880161256c565b94505060206127a68782880161256c565b93505060406127b78782880161256c565b92505060606127c88782880161256c565b91505092959194509250565b600063ffffffff82169050919050565b6127ed816127d4565b81146127f857600080fd5b50565b60008135905061280a816127e4565b92915050565b6000806000806080858703121561282a576128296123d4565b5b600061283887828801612621565b9450506020612849878288016127fb565b935050604061285a8782880161256c565b925050606061286b8782880161256c565b91505092959194509250565b60006020828403121561288d5761288c6123d4565b5b600061289b84828501612621565b91505092915050565b6128ad81612463565b81146128b857600080fd5b50565b6000813590506128ca816128a4565b92915050565b600080604083850312156128e7576128e66123d4565b5b60006128f585828601612621565b9250506020612906858286016128bb565b9150509250929050565b600060808201905061292560008301876126f0565b61293260208301866126f0565b61293f60408301856126f0565b61294c60608301846126f0565b95945050505050565b600080fd5b600080fd5b7f4e487b7100000000000000000000000000000000000000000000000000000000600052604160045260246000fd5b612997826124df565b810181811067ffffffffffffffff821117156129b6576129b561295f565b5b80604052505050565b60006129c96123ca565b90506129d5828261298e565b919050565b600067ffffffffffffffff8211156129f5576129f461295f565b5b6129fe826124df565b9050602081019050919050565b82818337600083830152505050565b6000612a2d612a28846129da565b6129bf565b905082815260208101848484011115612a4957612a4861295a565b5b612a54848285612a0b565b509392505050565b600082601f830112612a7157612a70612955565b5b8135612a81848260208601612a1a565b91505092915050565b60008060008060808587031215612aa457612aa36123d4565b5b6000612ab287828801612621565b9450506020612ac387828801612621565b9350506040612ad48782880161256c565b925050606085013567ffffffffffffffff811115612af557612af46123d9565b5b612b0187828801612a5c565b91505092959194509250565b6000612b18826126a2565b9050919050565b612b2881612b0d565b82525050565b6000602082019050612b436000830184612b1f565b92915050565b60008060408385031215612b6057612b5f6123d4565b5b6000612b6e85828601612621565b9250506020612b7f85828601612621565b9150509250929050565b6000819050919050565b612b9c81612b89565b8114612ba757600080fd5b50565b600081359050612bb981612b93565b92915050565b60008060008060008060c08789031215612bdc57612bdb6123d4565b5b6000612bea89828a01612baa565b9650506020612bfb89828a0161256c565b9550506040612c0c89828a01612621565b9450506060612c1d89828a01612621565b9350506080612c2e89828a016127fb565b92505060a087013567ffffffffffffffff811115612c4f57612c4e6123d9565b5b612c5b89828a01612a5c565b9150509295509295509295565b600081519050919050565b600082825260208201905092915050565b6000612c8f82612c68565b612c998185612c73565b9350612ca98185602086016124b5565b612cb2816124df565b840191505092915050565b60006020820190508181036000830152612cd78184612c84565b905092915050565b7f4e487b7100000000000000000000000000000000000000000000000000000000600052602260045260246000fd5b60006002820490506001821680612d2657607f821691505b602082108103612d3957612d38612cdf565b5b50919050565b7f4552433732313a20617070726f76616c20746f2063757272656e74206f776e6560008201527f7200000000000000000000000000000000000000000000000000000000000000602082015250565b6000612d9b6021836124a4565b9150612da682612d3f565b604082019050919050565b60006020820190508181036000830152612dca81612d8e565b9050919050565b7f4552433732313a20617070726f76652063616c6c6572206973206e6f7420746f60008201527f6b656e206f776e6572206f7220617070726f76656420666f7220616c6c000000602082015250565b6000612e2d603d836124a4565b9150612e3882612dd1565b604082019050919050565b60006020820190508181036000830152612e5c81612e20565b9050919050565b7f4552433732313a2063616c6c6572206973206e6f7420746f6b656e206f776e6560008201527f72206f7220617070726f76656400000000000000000000000000000000000000602082015250565b6000612ebf602d836124a4565b9150612eca82612e63565b604082019050919050565b60006020820190508181036000830152612eee81612eb2565b9050919050565b600081905092915050565b7f3000000000000000000000000000000000000000000000000000000000000000600082015250565b6000612f36600183612ef5565b9150612f4182612f00565b600182019050919050565b7f2b00000000000000000000000000000000000000000000000000000000000000600082015250565b6000612f82600183612ef5565b9150612f8d82612f4c565b600182019050919050565b7f3300000000000000000000000000000000000000000000000000000000000000600082015250565b6000612fce600183612ef5565b9150612fd982612f98565b600182019050919050565b7f53747265616d2044657461696c73205570646174656400000000000000000000600082015250565b600061301a601683612ef5565b915061302582612fe4565b601682019050919050565b7f53747265616d2064657461696c732068617665206265656e207570646174656460008201527f2e00000000000000000000000000000000000000000000000000000000000000602082015250565b600061308c602183612ef5565b915061309782613030565b602182019050919050565b60006130ad82612f29565b91506130b882612f75565b91506130c382612fc1565b91506130ce82612f75565b91506130d98261300d565b91506130e482612f75565b91506130ef8261307f565b9150819050919050565b600060608201905061310e60008301866125e0565b61311b60208301856125e0565b818103604083015261312d8184612c84565b9050949350505050565b7f7b00000000000000000000000000000000000000000000000000000000000000600082015250565b600061316d600183612ef5565b915061317882613137565b600182019050919050565b7f226e616d65223a2022466c6f7779204e46540000000000000000000000000000600082015250565b60006131b9601283612ef5565b91506131c482613183565b601282019050919050565b60006131da82612499565b6131e48185612ef5565b93506131f48185602086016124b5565b80840191505092915050565b7f222c000000000000000000000000000000000000000000000000000000000000600082015250565b6000613236600283612ef5565b915061324182613200565b600282019050919050565b7f226465736372697074696f6e223a20224e465420746861742063616e2062652060008201527f73747265616d65642063726f73732d636861696e2e222c000000000000000000602082015250565b60006132a8603783612ef5565b91506132b38261324c565b603782019050919050565b7f22696d616765223a202200000000000000000000000000000000000000000000600082015250565b60006132f4600a83612ef5565b91506132ff826132be565b600a82019050919050565b7f2200000000000000000000000000000000000000000000000000000000000000600082015250565b6000613340600183612ef5565b915061334b8261330a565b600182019050919050565b7f7d00000000000000000000000000000000000000000000000000000000000000600082015250565b600061338c600183612ef5565b915061339782613356565b600182019050919050565b60006133ad82613160565b91506133b8826131ac565b91506133c482856131cf565b91506133cf82613229565b91506133da8261329b565b91506133e5826132e7565b91506133f182846131cf565b91506133fc82613333565b91506134078261337f565b91508190509392505050565b7f646174613a6170706c69636174696f6e2f6a736f6e3b6261736536342c000000600082015250565b6000613449601d83612ef5565b915061345482613413565b601d82019050919050565b600061346a8261343c565b915061347682846131cf565b915081905092915050565b7f3c7376672077696474683d223130302522206865696768743d2231303025222060008201527f76696577426f783d2230203020323030203230302220786d6c6e733d2268747460208201527f703a2f2f7777772e77332e6f72672f323030302f737667223e00000000000000604082015250565b6000613503605983612ef5565b915061350e82613481565b605982019050919050565b7f3c7465787420783d223130302220793d223130302220746578742d616e63686f60008201527f723d226d6964646c65223e000000000000000000000000000000000000000000602082015250565b6000613575602b83612ef5565b915061358082613519565b602b82019050919050565b7f266c743b00000000000000000000000000000000000000000000000000000000600082015250565b60006135c1600483612ef5565b91506135cc8261358b565b600482019050919050565b7f2667743b00000000000000000000000000000000000000000000000000000000600082015250565b600061360d600483612ef5565b9150613618826135d7565b600482019050919050565b7f3c2f746578743e00000000000000000000000000000000000000000000000000600082015250565b6000613659600783612ef5565b915061366482613623565b600782019050919050565b7f3c2f7376673e0000000000000000000000000000000000000000000000000000600082015250565b60006136a5600683612ef5565b91506136b08261366f565b600682019050919050565b60006136c6826134f6565b91506136d182613568565b91506136dc826135b4565b91506136e882846131cf565b91506136f382613600565b91506136fe8261364c565b915061370982613698565b915081905092915050565b7f646174613a696d6167652f7376672b786d6c3b6261736536342c000000000000600082015250565b600061374a601a83612ef5565b915061375582613714565b601a82019050919050565b600061376b8261373d565b915061377782846131cf565b915081905092915050565b600060408201905061379760008301856125e0565b6137a460208301846125e0565b9392505050565b6000815190506137ba81612555565b92915050565b6000602082840312156137d6576137d56123d4565b5b60006137e4848285016137ab565b91505092915050565b7f546f6b656e20617070726f76616c207265717569726564210000000000000000600082015250565b60006138236018836124a4565b915061382e826137ed565b602082019050919050565b6000602082019050818103600083015261385281613816565b9050919050565b600060608201905061386e60008301866125e0565b61387b60208301856125e0565b61388860408301846126f0565b949350505050565b60008151905061389f816128a4565b92915050565b6000602082840312156138bb576138ba6123d4565b5b60006138c984828501613890565b91505092915050565b60006040820190506138e760008301856125e0565b6138f460208301846126f0565b9392505050565b613904816127d4565b82525050565b600060e08201905061391f600083018a6138fb565b61392c60208301896125e0565b61393960408301886125e0565b61394660608301876125e0565b61395360808301866126f0565b61396060a08301856126f0565b81810360c08301526139728184612c84565b905098975050505050505050565b60008151905061398f81612b93565b92915050565b6000602082840312156139ab576139aa6123d4565b5b60006139b984828501613980565b91505092915050565b7f4e487b7100000000000000000000000000000000000000000000000000000000600052601160045260246000fd5b60006139fc8261254b565b9150613a078361254b565b9250828203905081811115613a1f57613a1e6139c2565b5b92915050565b7f53747265616d2053656e74000000000000000000000000000000000000000000600082015250565b6000613a5b600b83612ef5565b9150613a6682613a25565b600b82019050919050565b7f53747265616d20686173206265656e2073656e74207375636365737366756c6c60008201527f792e000000000000000000000000000000000000000000000000000000000000602082015250565b6000613acd602283612ef5565b9150613ad882613a71565b602282019050919050565b6000613aee82612f29565b9150613af982612f75565b9150613b0482612fc1565b9150613b0f82612f75565b9150613b1a82613a4e565b9150613b2582612f75565b9150613b3082613ac0565b9150819050919050565b7f4552433732313a20696e76616c696420746f6b656e2049440000000000000000600082015250565b6000613b706018836124a4565b9150613b7b82613b3a565b602082019050919050565b60006020820190508181036000830152613b9f81613b63565b9050919050565b7f4552433732313a2061646472657373207a65726f206973206e6f74206120766160008201527f6c6964206f776e65720000000000000000000000000000000000000000000000602082015250565b6000613c026029836124a4565b9150613c0d82613ba6565b604082019050919050565b60006020820190508181036000830152613c3181613bf5565b9050919050565b6000613c438261254b565b9150613c4e8361254b565b9250828201905080821115613c6657613c656139c2565b5b92915050565b7f53747265616d2052656365697665640000000000000000000000000000000000600082015250565b6000613ca2600f83612ef5565b9150613cad82613c6c565b600f82019050919050565b7f53747265616d20686173206265656e207265636569766564207375636365737360008201527f66756c6c792e0000000000000000000000000000000000000000000000000000602082015250565b6000613d14602683612ef5565b9150613d1f82613cb8565b602682019050919050565b6000613d3582612f29565b9150613d4082612f75565b9150613d4b82612fc1565b9150613d5682612f75565b9150613d6182613c95565b9150613d6c82612f75565b9150613d7782613d07565b9150819050919050565b7f4e487b7100000000000000000000000000000000000000000000000000000000600052601260045260246000fd5b6000613dbb8261254b565b9150613dc68361254b565b925082613dd657613dd5613d81565b5b828204905092915050565b6000613dec8261254b565b9150613df78361254b565b9250828202613e058161254b565b91508282048414831517613e1c57613e1b6139c2565b5b5092915050565b7f4552433732313a207472616e736665722066726f6d20696e636f72726563742060008201527f6f776e6572000000000000000000000000000000000000000000000000000000602082015250565b6000613e7f6025836124a4565b9150613e8a82613e23565b604082019050919050565b60006020820190508181036000830152613eae81613e72565b9050919050565b7f4552433732313a207472616e7366657220746f20746865207a65726f2061646460008201527f7265737300000000000000000000000000000000000000000000000000000000602082015250565b6000613f116024836124a4565b9150613f1c82613eb5565b604082019050919050565b60006020820190508181036000830152613f4081613f04565b9050919050565b7f4552433732313a20617070726f766520746f2063616c6c657200000000000000600082015250565b6000613f7d6019836124a4565b9150613f8882613f47565b602082019050919050565b60006020820190508181036000830152613fac81613f70565b9050919050565b7f4552433732313a207472616e7366657220746f206e6f6e20455243373231526560008201527f63656976657220696d706c656d656e7465720000000000000000000000000000602082015250565b600061400f6032836124a4565b915061401a82613fb3565b604082019050919050565b6000602082019050818103600083015261403e81614002565b9050919050565b600060808201905061405a60008301876125e0565b61406760208301866125e0565b61407460408301856126f0565b81810360608301526140868184612c84565b905095945050505050565b6000815190506140a08161240a565b92915050565b6000602082840312156140bc576140bb6123d4565b5b60006140ca84828501614091565b9150509291505056fe4142434445464748494a4b4c4d4e4f505152535455565758595a6162636465666768696a6b6c6d6e6f707172737475767778797a303132333435363738392b2fa26469706673582212205ce4206c2a78d407b98b354073597ee9ce09173ea5c112cb9240aa075d0a11ba64736f6c634300081100334142434445464748494a4b4c4d4e4f505152535455565758595a6162636465666768696a6b6c6d6e6f707172737475767778797a303132333435363738392b2f",
	"linkReferences": {},
	"deployedLinkReferences": {}
}