{
	"_format": "hh-sol-artifact-1",
	"contractName": "Flowy",
	"sourceName": "contracts/Flowy.sol",
	"abi": [
		{
			"inputs": [
				{
					"internalType": "address",
					"name": "_connext",
					"type": "address"
				},
				{
					"internalType": "address",
					"name": "_sourceToken",
					"type": "address"
				},
				{
					"internalType": "address",
					"name": "_destinationToken",
					"type": "address"
				}
			],
			"stateMutability": "nonpayable",
			"type": "constructor"
		},
		{
			"anonymous": false,
			"inputs": [
				{
					"indexed": true,
					"internalType": "address",
					"name": "owner",
					"type": "address"
				},
				{
					"indexed": true,
					"internalType": "address",
					"name": "approved",
					"type": "address"
				},
				{
					"indexed": true,
					"internalType": "uint256",
					"name": "tokenId",
					"type": "uint256"
				}
			],
			"name": "Approval",
			"type": "event"
		},
		{
			"anonymous": false,
			"inputs": [
				{
					"indexed": true,
					"internalType": "address",
					"name": "owner",
					"type": "address"
				},
				{
					"indexed": true,
					"internalType": "address",
					"name": "operator",
					"type": "address"
				},
				{
					"indexed": false,
					"internalType": "bool",
					"name": "approved",
					"type": "bool"
				}
			],
			"name": "ApprovalForAll",
			"type": "event"
		},
		{
			"anonymous": false,
			"inputs": [
				{
					"indexed": true,
					"internalType": "address",
					"name": "from",
					"type": "address"
				},
				{
					"indexed": true,
					"internalType": "address",
					"name": "to",
					"type": "address"
				},
				{
					"indexed": true,
					"internalType": "uint256",
					"name": "tokenId",
					"type": "uint256"
				}
			],
			"name": "Transfer",
			"type": "event"
		},
		{
			"inputs": [],
			"name": "_tokenIds",
			"outputs": [
				{
					"internalType": "uint256",
					"name": "_value",
					"type": "uint256"
				}
			],
			"stateMutability": "view",
			"type": "function"
		},
		{
			"inputs": [
				{
					"internalType": "address",
					"name": "to",
					"type": "address"
				},
				{
					"internalType": "uint256",
					"name": "tokenId",
					"type": "uint256"
				}
			],
			"name": "approve",
			"outputs": [],
			"stateMutability": "nonpayable",
			"type": "function"
		},
		{
			"inputs": [
				{
					"internalType": "address",
					"name": "owner",
					"type": "address"
				}
			],
			"name": "balanceOf",
			"outputs": [
				{
					"internalType": "uint256",
					"name": "",
					"type": "uint256"
				}
			],
			"stateMutability": "view",
			"type": "function"
		},
		{
			"inputs": [],
			"name": "connext",
			"outputs": [
				{
					"internalType": "contract IConnext",
					"name": "",
					"type": "address"
				}
			],
			"stateMutability": "view",
			"type": "function"
		},
		{
			"inputs": [],
			"name": "currAmount",
			"outputs": [
				{
					"internalType": "string",
					"name": "",
					"type": "string"
				}
			],
			"stateMutability": "view",
			"type": "function"
		},
		{
			"inputs": [],
			"name": "destinationToken",
			"outputs": [
				{
					"internalType": "contract IERC20",
					"name": "",
					"type": "address"
				}
			],
			"stateMutability": "view",
			"type": "function"
		},
		{
			"inputs": [
				{
					"internalType": "uint256",
					"name": "tokenId",
					"type": "uint256"
				}
			],
			"name": "generateNFT",
			"outputs": [
				{
					"internalType": "string",
					"name": "",
					"type": "string"
				}
			],
			"stateMutability": "view",
			"type": "function"
		},
		{
			"inputs": [
				{
					"internalType": "uint256",
					"name": "tokenId",
					"type": "uint256"
				}
			],
			"name": "getApproved",
			"outputs": [
				{
					"internalType": "address",
					"name": "",
					"type": "address"
				}
			],
			"stateMutability": "view",
			"type": "function"
		},
		{
			"inputs": [],
			"name": "getTimestamp",
			"outputs": [
				{
					"internalType": "uint256",
					"name": "",
					"type": "uint256"
				}
			],
			"stateMutability": "view",
			"type": "function"
		},
		{
			"inputs": [
				{
					"internalType": "uint256",
					"name": "tokenId",
					"type": "uint256"
				}
			],
			"name": "getTokenURI",
			"outputs": [
				{
					"internalType": "string",
					"name": "",
					"type": "string"
				}
			],
			"stateMutability": "view",
			"type": "function"
		},
		{
			"inputs": [
				{
					"internalType": "address",
					"name": "owner",
					"type": "address"
				},
				{
					"internalType": "address",
					"name": "operator",
					"type": "address"
				}
			],
			"name": "isApprovedForAll",
			"outputs": [
				{
					"internalType": "bool",
					"name": "",
					"type": "bool"
				}
			],
			"stateMutability": "view",
			"type": "function"
		},
		{
			"inputs": [],
			"name": "name",
			"outputs": [
				{
					"internalType": "string",
					"name": "",
					"type": "string"
				}
			],
			"stateMutability": "view",
			"type": "function"
		},
		{
			"inputs": [
				{
					"internalType": "uint256",
					"name": "tokenId",
					"type": "uint256"
				}
			],
			"name": "ownerOf",
			"outputs": [
				{
					"internalType": "address",
					"name": "",
					"type": "address"
				}
			],
			"stateMutability": "view",
			"type": "function"
		},
		{
			"inputs": [
				{
					"internalType": "address",
					"name": "from",
					"type": "address"
				},
				{
					"internalType": "address",
					"name": "to",
					"type": "address"
				},
				{
					"internalType": "uint256",
					"name": "tokenId",
					"type": "uint256"
				}
			],
			"name": "safeTransferFrom",
			"outputs": [],
			"stateMutability": "nonpayable",
			"type": "function"
		},
		{
			"inputs": [
				{
					"internalType": "address",
					"name": "from",
					"type": "address"
				},
				{
					"internalType": "address",
					"name": "to",
					"type": "address"
				},
				{
					"internalType": "uint256",
					"name": "tokenId",
					"type": "uint256"
				},
				{
					"internalType": "bytes",
					"name": "data",
					"type": "bytes"
				}
			],
			"name": "safeTransferFrom",
			"outputs": [],
			"stateMutability": "nonpayable",
			"type": "function"
		},
		{
			"inputs": [
				{
					"internalType": "address",
					"name": "operator",
					"type": "address"
				},
				{
					"internalType": "bool",
					"name": "approved",
					"type": "bool"
				}
			],
			"name": "setApprovalForAll",
			"outputs": [],
			"stateMutability": "nonpayable",
			"type": "function"
		},
		{
			"inputs": [
				{
					"internalType": "uint256",
					"name": "_streamAmount",
					"type": "uint256"
				},
				{
					"internalType": "uint256",
					"name": "_streamReference",
					"type": "uint256"
				},
				{
					"internalType": "uint256",
					"name": "_streamType",
					"type": "uint256"
				},
				{
					"internalType": "uint256",
					"name": "_streamMax",
					"type": "uint256"
				}
			],
			"name": "setNFT",
			"outputs": [],
			"stateMutability": "nonpayable",
			"type": "function"
		},
		{
			"inputs": [],
			"name": "slippage",
			"outputs": [
				{
					"internalType": "uint256",
					"name": "",
					"type": "uint256"
				}
			],
			"stateMutability": "view",
			"type": "function"
		},
		{
			"inputs": [],
			"name": "sourceToken",
			"outputs": [
				{
					"internalType": "contract IERC20",
					"name": "",
					"type": "address"
				}
			],
			"stateMutability": "view",
			"type": "function"
		},
		{
			"inputs": [],
			"name": "streamAmount",
			"outputs": [
				{
					"internalType": "uint256",
					"name": "",
					"type": "uint256"
				}
			],
			"stateMutability": "view",
			"type": "function"
		},
		{
			"inputs": [],
			"name": "streamMax",
			"outputs": [
				{
					"internalType": "uint256",
					"name": "",
					"type": "uint256"
				}
			],
			"stateMutability": "view",
			"type": "function"
		},
		{
			"inputs": [],
			"name": "streamReference",
			"outputs": [
				{
					"internalType": "uint256",
					"name": "",
					"type": "uint256"
				}
			],
			"stateMutability": "view",
			"type": "function"
		},
		{
			"inputs": [],
			"name": "streamType",
			"outputs": [
				{
					"internalType": "uint256",
					"name": "",
					"type": "uint256"
				}
			],
			"stateMutability": "view",
			"type": "function"
		},
		{
			"inputs": [
				{
					"internalType": "bytes4",
					"name": "interfaceId",
					"type": "bytes4"
				}
			],
			"name": "supportsInterface",
			"outputs": [
				{
					"internalType": "bool",
					"name": "",
					"type": "bool"
				}
			],
			"stateMutability": "view",
			"type": "function"
		},
		{
			"inputs": [],
			"name": "symbol",
			"outputs": [
				{
					"internalType": "string",
					"name": "",
					"type": "string"
				}
			],
			"stateMutability": "view",
			"type": "function"
		},
		{
			"inputs": [
				{
					"internalType": "uint256",
					"name": "tokenId",
					"type": "uint256"
				}
			],
			"name": "tokenURI",
			"outputs": [
				{
					"internalType": "string",
					"name": "",
					"type": "string"
				}
			],
			"stateMutability": "view",
			"type": "function"
		},
		{
			"inputs": [
				{
					"internalType": "address",
					"name": "from",
					"type": "address"
				},
				{
					"internalType": "address",
					"name": "to",
					"type": "address"
				},
				{
					"internalType": "uint256",
					"name": "tokenId",
					"type": "uint256"
				}
			],
			"name": "transferFrom",
			"outputs": [],
			"stateMutability": "nonpayable",
			"type": "function"
		},
		{
			"inputs": [
				{
					"internalType": "bytes32",
					"name": "_transferId",
					"type": "bytes32"
				},
				{
					"internalType": "uint256",
					"name": "_amount",
					"type": "uint256"
				},
				{
					"internalType": "address",
					"name": "_asset",
					"type": "address"
				},
				{
					"internalType": "address",
					"name": "_originSender",
					"type": "address"
				},
				{
					"internalType": "uint32",
					"name": "_origin",
					"type": "uint32"
				},
				{
					"internalType": "bytes",
					"name": "_callData",
					"type": "bytes"
				}
			],
			"name": "xReceive",
			"outputs": [
				{
					"internalType": "bytes",
					"name": "",
					"type": "bytes"
				}
			],
			"stateMutability": "nonpayable",
			"type": "function"
		},
		{
			"inputs": [
				{
					"internalType": "address",
					"name": "target",
					"type": "address"
				},
				{
					"internalType": "uint32",
					"name": "destinationDomain",
					"type": "uint32"
				},
				{
					"internalType": "uint256",
					"name": "amount",
					"type": "uint256"
				},
				{
					"internalType": "uint256",
					"name": "relayerFee",
					"type": "uint256"
				}
			],
			"name": "xSend",
			"outputs": [],
			"stateMutability": "payable",
			"type": "function"
		}
	],
	"bytecode": "0x60c060405261271060a0908152503480156200001a57600080fd5b50604051620057f1380380620057f1833981810160405281019062000040919062000e51565b6040518060400160405280600881526020017f466c6f77794e46540000000000000000000000000000000000000000000000008152506040518060400160405280600481526020017f464e4654000000000000000000000000000000000000000000000000000000008152508160009081620000bd919062001127565b508060019081620000cf919062001127565b5050506000600b819055506000600a81905550610e10600d819055508273ffffffffffffffffffffffffffffffffffffffff1660808173ffffffffffffffffffffffffffffffffffffffff168152505081600860006101000a81548173ffffffffffffffffffffffffffffffffffffffff021916908373ffffffffffffffffffffffffffffffffffffffff16021790555080600960006101000a81548173ffffffffffffffffffffffffffffffffffffffff021916908373ffffffffffffffffffffffffffffffffffffffff160217905550620001b860076200021160201b6200140c1760201c565b6000620001d160076200022760201b620014221760201c565b9050620001e533826200023560201b60201c565b6200020781620001fb836200025b60201b60201c565b620002e960201b60201c565b5050505062001de9565b6001816000016000828254019250508190555050565b600081600001549050919050565b620002578282604051806020016040528060008152506200036360201b60201c565b5050565b606060006200027583620003d160201b620014301760201c565b6200028684620004b560201b60201c565b60405160200162000299929190620014d2565b6040516020818303038152906040529050620002c0816200052b60201b620014fe1760201c565b604051602001620002d29190620015a5565b604051602081830303815290604052915050919050565b620002fa82620006a160201b60201c565b6200033c576040517f08c379a0000000000000000000000000000000000000000000000000000000008152600401620003339062001652565b60405180910390fd5b806006600084815260200190815260200160002090816200035e919062001127565b505050565b620003758383620006ea60201b60201c565b6200038a60008484846200093060201b60201c565b620003cc576040517f08c379a0000000000000000000000000000000000000000000000000000000008152600401620003c390620016ea565b60405180910390fd5b505050565b606060006001620003ed8462000ad960201b620016611760201c565b01905060008167ffffffffffffffff8111156200040f576200040e62000eb8565b5b6040519080825280601f01601f191660200182016040528015620004425781602001600182028036833780820191505090505b509050600082602001820190505b600115620004aa578080600190039150507f3031323334353637383961626364656600000000000000000000000000000000600a86061a8153600a85816200049d576200049c6200170c565b5b0494506000850362000450575b819350505050919050565b60606000620004c962000c4560201b60201c565b604051602001620004db91906200198d565b604051602081830303815290604052905062000502816200052b60201b620014fe1760201c565b60405160200162000514919062001a44565b604051602081830303815290604052915050919050565b606060008251036200054f576040518060200160405280600081525090506200069c565b6000604051806060016040528060408152602001620057b1604091399050600060036002855162000581919062001a99565b6200058d919062001ad4565b60046200059b919062001b0c565b67ffffffffffffffff811115620005b757620005b662000eb8565b5b6040519080825280601f01601f191660200182016040528015620005ea5781602001600182028036833780820191505090505b509050600182016020820185865187015b8082101562000658576003820191508151603f8160121c168501518453600184019350603f81600c1c168501518453600184019350603f8160061c168501518453600184019350603f8116850151845360018401935050620005fb565b50506003865106600181146200067757600281146200068b5762000693565b603d6001830353603d600283035362000693565b603d60018303535b50505080925050505b919050565b60008073ffffffffffffffffffffffffffffffffffffffff16620006cb8362000d7360201b60201c565b73ffffffffffffffffffffffffffffffffffffffff1614159050919050565b600073ffffffffffffffffffffffffffffffffffffffff168273ffffffffffffffffffffffffffffffffffffffff16036200075c576040517f08c379a0000000000000000000000000000000000000000000000000000000008152600401620007539062001ba7565b60405180910390fd5b6200076d81620006a160201b60201c565b15620007b0576040517f08c379a0000000000000000000000000000000000000000000000000000000008152600401620007a79062001c19565b60405180910390fd5b620007c660008383600162000db060201b60201c565b620007d781620006a160201b60201c565b156200081a576040517f08c379a0000000000000000000000000000000000000000000000000000000008152600401620008119062001c19565b60405180910390fd5b6001600360008473ffffffffffffffffffffffffffffffffffffffff1673ffffffffffffffffffffffffffffffffffffffff16815260200190815260200160002060008282540192505081905550816002600083815260200190815260200160002060006101000a81548173ffffffffffffffffffffffffffffffffffffffff021916908373ffffffffffffffffffffffffffffffffffffffff160217905550808273ffffffffffffffffffffffffffffffffffffffff16600073ffffffffffffffffffffffffffffffffffffffff167fddf252ad1be2c89b69c2b068fc378daa952ba7f163c4a11628f55a4df523b3ef60405160405180910390a46200092c60008383600162000db660201b60201c565b5050565b60006200095e8473ffffffffffffffffffffffffffffffffffffffff1662000dbc60201b620017b41760201c565b1562000acc578373ffffffffffffffffffffffffffffffffffffffff1663150b7a026200099062000ddf60201b60201c565b8786866040518563ffffffff1660e01b8152600401620009b4949392919062001ccb565b6020604051808303816000875af1925050508015620009f357506040513d601f19601f82011682018060405250810190620009f0919062001d7c565b60015b62000a7b573d806000811462000a26576040519150601f19603f3d011682016040523d82523d6000602084013e62000a2b565b606091505b50600081510362000a73576040517f08c379a000000000000000000000000000000000000000000000000000000000815260040162000a6a90620016ea565b60405180910390fd5b805181602001fd5b63150b7a0260e01b7bffffffffffffffffffffffffffffffffffffffffffffffffffffffff1916817bffffffffffffffffffffffffffffffffffffffffffffffffffffffff19161491505062000ad1565b600190505b949350505050565b600080600090507a184f03e93ff9f4daa797ed6e38ed64bf6a1f010000000000000000831062000b3b577a184f03e93ff9f4daa797ed6e38ed64bf6a1f010000000000000000838162000b315762000b306200170c565b5b0492506040810190505b6d04ee2d6d415b85acef8100000000831062000b7c576d04ee2d6d415b85acef8100000000838162000b725762000b716200170c565b5b0492506020810190505b662386f26fc10000831062000baf57662386f26fc10000838162000ba55762000ba46200170c565b5b0492506010810190505b6305f5e100831062000bdc576305f5e100838162000bd25762000bd16200170c565b5b0492506008810190505b612710831062000c0557612710838162000bfb5762000bfa6200170c565b5b0492506004810190505b6064831062000c2c576064838162000c225762000c216200170c565b5b0492506002810190505b600a831062000c3c576001810190505b80915050919050565b60606000600a540362000c725762000c6a600b54620003d160201b620014301760201c565b905062000d70565b6000600c540362000cf157600b54600a544262000c90919062001dae565b1062000cb55762000cad6000620003d160201b620014301760201c565b905062000d70565b62000ce9600a544262000cc9919062001dae565b600b5462000cd8919062001dae565b620003d160201b620014301760201c565b905062000d70565b600d54600a544262000d04919062001dae565b600b5462000d13919062001a99565b1062000d395762000d31600d54620003d160201b620014301760201c565b905062000d70565b62000d6d600a544262000d4d919062001dae565b600b5462000d5c919062001a99565b620003d160201b620014301760201c565b90505b90565b60006002600083815260200190815260200160002060009054906101000a900473ffffffffffffffffffffffffffffffffffffffff169050919050565b50505050565b50505050565b6000808273ffffffffffffffffffffffffffffffffffffffff163b119050919050565b600033905090565b600080fd5b600073ffffffffffffffffffffffffffffffffffffffff82169050919050565b600062000e198262000dec565b9050919050565b62000e2b8162000e0c565b811462000e3757600080fd5b50565b60008151905062000e4b8162000e20565b92915050565b60008060006060848603121562000e6d5762000e6c62000de7565b5b600062000e7d8682870162000e3a565b935050602062000e908682870162000e3a565b925050604062000ea38682870162000e3a565b9150509250925092565b600081519050919050565b7f4e487b7100000000000000000000000000000000000000000000000000000000600052604160045260246000fd5b7f4e487b7100000000000000000000000000000000000000000000000000000000600052602260045260246000fd5b6000600282049050600182168062000f2f57607f821691505b60208210810362000f455762000f4462000ee7565b5b50919050565b60008190508160005260206000209050919050565b60006020601f8301049050919050565b600082821b905092915050565b60006008830262000faf7fffffffffffffffffffffffffffffffffffffffffffffffffffffffffffffffff8262000f70565b62000fbb868362000f70565b95508019841693508086168417925050509392505050565b6000819050919050565b6000819050919050565b6000620010086200100262000ffc8462000fd3565b62000fdd565b62000fd3565b9050919050565b6000819050919050565b620010248362000fe7565b6200103c62001033826200100f565b84845462000f7d565b825550505050565b600090565b6200105362001044565b6200106081848462001019565b505050565b5b8181101562001088576200107c60008262001049565b60018101905062001066565b5050565b601f821115620010d757620010a18162000f4b565b620010ac8462000f60565b81016020851015620010bc578190505b620010d4620010cb8562000f60565b83018262001065565b50505b505050565b600082821c905092915050565b6000620010fc60001984600802620010dc565b1980831691505092915050565b6000620011178383620010e9565b9150826002028217905092915050565b620011328262000ead565b67ffffffffffffffff8111156200114e576200114d62000eb8565b5b6200115a825462000f16565b620011678282856200108c565b600060209050601f8311600181146200119f57600084156200118a578287015190505b62001196858262001109565b86555062001206565b601f198416620011af8662000f4b565b60005b82811015620011d957848901518255600182019150602085019450602081019050620011b2565b86831015620011f95784890151620011f5601f891682620010e9565b8355505b6001600288020188555050505b505050505050565b600081905092915050565b7f7b00000000000000000000000000000000000000000000000000000000000000600082015250565b6000620012516001836200120e565b91506200125e8262001219565b600182019050919050565b7f226e616d65223a2022466c6f7779204e46540000000000000000000000000000600082015250565b6000620012a16012836200120e565b9150620012ae8262001269565b601282019050919050565b60005b83811015620012d9578082015181840152602081019050620012bc565b60008484015250505050565b6000620012f28262000ead565b620012fe81856200120e565b935062001310818560208601620012b9565b80840191505092915050565b7f222c000000000000000000000000000000000000000000000000000000000000600082015250565b6000620013546002836200120e565b915062001361826200131c565b600282019050919050565b7f226465736372697074696f6e223a20224e465420746861742063616e2062652060008201527f73747265616d65642063726f73732d636861696e2e222c000000000000000000602082015250565b6000620013ca6037836200120e565b9150620013d7826200136c565b603782019050919050565b7f22696d616765223a202200000000000000000000000000000000000000000000600082015250565b60006200141a600a836200120e565b91506200142782620013e2565b600a82019050919050565b7f2200000000000000000000000000000000000000000000000000000000000000600082015250565b60006200146a6001836200120e565b9150620014778262001432565b600182019050919050565b7f7d00000000000000000000000000000000000000000000000000000000000000600082015250565b6000620014ba6001836200120e565b9150620014c78262001482565b600182019050919050565b6000620014df8262001242565b9150620014ec8262001292565b9150620014fa8285620012e5565b9150620015078262001345565b91506200151482620013bb565b915062001521826200140b565b91506200152f8284620012e5565b91506200153c826200145b565b91506200154982620014ab565b91508190509392505050565b7f646174613a6170706c69636174696f6e2f6a736f6e3b6261736536342c000000600082015250565b60006200158d601d836200120e565b91506200159a8262001555565b601d82019050919050565b6000620015b2826200157e565b9150620015c08284620012e5565b915081905092915050565b600082825260208201905092915050565b7f45524337323155524953746f726167653a2055524920736574206f66206e6f6e60008201527f6578697374656e7420746f6b656e000000000000000000000000000000000000602082015250565b60006200163a602e83620015cb565b91506200164782620015dc565b604082019050919050565b600060208201905081810360008301526200166d816200162b565b9050919050565b7f4552433732313a207472616e7366657220746f206e6f6e20455243373231526560008201527f63656976657220696d706c656d656e7465720000000000000000000000000000602082015250565b6000620016d2603283620015cb565b9150620016df8262001674565b604082019050919050565b600060208201905081810360008301526200170581620016c3565b9050919050565b7f4e487b7100000000000000000000000000000000000000000000000000000000600052601260045260246000fd5b7f3c7376672077696474683d223130302522206865696768743d2231303025222060008201527f76696577426f783d2230203020323030203230302220786d6c6e733d2268747460208201527f703a2f2f7777772e77332e6f72672f323030302f737667223e00000000000000604082015250565b6000620017bf6059836200120e565b9150620017cc826200173b565b605982019050919050565b7f3c7465787420783d223130302220793d223130302220746578742d616e63686f60008201527f723d226d6964646c65223e000000000000000000000000000000000000000000602082015250565b600062001835602b836200120e565b91506200184282620017d7565b602b82019050919050565b7f266c743b00000000000000000000000000000000000000000000000000000000600082015250565b6000620018856004836200120e565b915062001892826200184d565b600482019050919050565b7f2667743b00000000000000000000000000000000000000000000000000000000600082015250565b6000620018d56004836200120e565b9150620018e2826200189d565b600482019050919050565b7f3c2f746578743e00000000000000000000000000000000000000000000000000600082015250565b6000620019256007836200120e565b91506200193282620018ed565b600782019050919050565b7f3c2f7376673e0000000000000000000000000000000000000000000000000000600082015250565b6000620019756006836200120e565b915062001982826200193d565b600682019050919050565b60006200199a82620017b0565b9150620019a78262001826565b9150620019b48262001876565b9150620019c28284620012e5565b9150620019cf82620018c6565b9150620019dc8262001916565b9150620019e98262001966565b915081905092915050565b7f646174613a696d6167652f7376672b786d6c3b6261736536342c000000000000600082015250565b600062001a2c601a836200120e565b915062001a3982620019f4565b601a82019050919050565b600062001a518262001a1d565b915062001a5f8284620012e5565b915081905092915050565b7f4e487b7100000000000000000000000000000000000000000000000000000000600052601160045260246000fd5b600062001aa68262000fd3565b915062001ab38362000fd3565b925082820190508082111562001ace5762001acd62001a6a565b5b92915050565b600062001ae18262000fd3565b915062001aee8362000fd3565b92508262001b015762001b006200170c565b5b828204905092915050565b600062001b198262000fd3565b915062001b268362000fd3565b925082820262001b368162000fd3565b9150828204841483151762001b505762001b4f62001a6a565b5b5092915050565b7f4552433732313a206d696e7420746f20746865207a65726f2061646472657373600082015250565b600062001b8f602083620015cb565b915062001b9c8262001b57565b602082019050919050565b6000602082019050818103600083015262001bc28162001b80565b9050919050565b7f4552433732313a20746f6b656e20616c7265616479206d696e74656400000000600082015250565b600062001c01601c83620015cb565b915062001c0e8262001bc9565b602082019050919050565b6000602082019050818103600083015262001c348162001bf2565b9050919050565b62001c468162000e0c565b82525050565b62001c578162000fd3565b82525050565b600081519050919050565b600082825260208201905092915050565b6000601f19601f8301169050919050565b600062001c978262001c5d565b62001ca3818562001c68565b935062001cb5818560208601620012b9565b62001cc08162001c79565b840191505092915050565b600060808201905062001ce2600083018762001c3b565b62001cf1602083018662001c3b565b62001d00604083018562001c4c565b818103606083015262001d14818462001c8a565b905095945050505050565b60007fffffffff0000000000000000000000000000000000000000000000000000000082169050919050565b62001d568162001d1f565b811462001d6257600080fd5b50565b60008151905062001d768162001d4b565b92915050565b60006020828403121562001d955762001d9462000de7565b5b600062001da58482850162001d65565b91505092915050565b600062001dbb8262000fd3565b915062001dc88362000fd3565b925082820390508181111562001de35762001de262001a6a565b5b92915050565b60805160a05161398d62001e2460003960008181610b1e0152610e90015260008181610d8001528181610e2c015261120b015261398d6000f3fe6080604052600436106101c25760003560e01c80635f8aaa69116100f7578063b88d4fde11610095578063e985e9c511610064578063e985e9c51461065d578063f6bb344e1461069a578063f7cac8bb146106c5578063fd614f41146106f0576101c2565b8063b88d4fde146105a1578063c87b56dd146105ca578063de4b054814610607578063dfabd0c514610632576101c2565b806370a08231116100d157806370a08231146104e557806395d89b4114610522578063a22cb4651461054d578063aa46a40014610576576101c2565b80635f8aaa69146104525780636352211e1461047d57806368c0683c146104ba576101c2565b806323b872dd116101645780633e032a3b1161013e5780633e032a3b146103a557806342842e0e146103d0578063584f3c3f146103f9578063593ce1bd14610436576101c2565b806323b872dd1461031657806329e3ab171461033f5780633bb3a24d14610368576101c2565b8063095ea7b3116101a0578063095ea7b31461026c5780630b4749491461029557806314126d5c146102c0578063188ec356146102eb576101c2565b806301ffc9a7146101c757806306fdde0314610204578063081812fc1461022f575b600080fd5b3480156101d357600080fd5b506101ee60048036038101906101e99190612120565b61072d565b6040516101fb9190612168565b60405180910390f35b34801561021057600080fd5b5061021961080f565b6040516102269190612213565b60405180910390f35b34801561023b57600080fd5b506102566004803603810190610251919061226b565b6108a1565b60405161026391906122d9565b60405180910390f35b34801561027857600080fd5b50610293600480360381019061028e9190612320565b6108e7565b005b3480156102a157600080fd5b506102aa6109fe565b6040516102b791906123bf565b60405180910390f35b3480156102cc57600080fd5b506102d5610a24565b6040516102e291906123e9565b60405180910390f35b3480156102f757600080fd5b50610300610a2a565b60405161030d91906123e9565b60405180910390f35b34801561032257600080fd5b5061033d60048036038101906103389190612404565b610a32565b005b34801561034b57600080fd5b5061036660048036038101906103619190612457565b610a92565b005b34801561037457600080fd5b5061038f600480360381019061038a919061226b565b610ab4565b60405161039c9190612213565b60405180910390f35b3480156103b157600080fd5b506103ba610b1c565b6040516103c791906123e9565b60405180910390f35b3480156103dc57600080fd5b506103f760048036038101906103f29190612404565b610b40565b005b34801561040557600080fd5b50610420600480360381019061041b919061226b565b610b60565b60405161042d9190612213565b60405180910390f35b610450600480360381019061044b91906124fa565b610bbd565b005b34801561045e57600080fd5b50610467610f6f565b60405161047491906123bf565b60405180910390f35b34801561048957600080fd5b506104a4600480360381019061049f919061226b565b610f95565b6040516104b191906122d9565b60405180910390f35b3480156104c657600080fd5b506104cf61101b565b6040516104dc91906123e9565b60405180910390f35b3480156104f157600080fd5b5061050c60048036038101906105079190612561565b611021565b60405161051991906123e9565b60405180910390f35b34801561052e57600080fd5b506105376110d8565b6040516105449190612213565b60405180910390f35b34801561055957600080fd5b50610574600480360381019061056f91906125ba565b61116a565b005b34801561058257600080fd5b5061058b611180565b60405161059891906123e9565b60405180910390f35b3480156105ad57600080fd5b506105c860048036038101906105c3919061272f565b61118c565b005b3480156105d657600080fd5b506105f160048036038101906105ec919061226b565b6111ee565b6040516105fe9190612213565b60405180910390f35b34801561061357600080fd5b5061061c611209565b60405161062991906127d3565b60405180910390f35b34801561063e57600080fd5b5061064761122d565b60405161065491906123e9565b60405180910390f35b34801561066957600080fd5b50610684600480360381019061067f91906127ee565b611233565b6040516106919190612168565b60405180910390f35b3480156106a657600080fd5b506106af6112c7565b6040516106bc91906123e9565b60405180910390f35b3480156106d157600080fd5b506106da6112cd565b6040516106e79190612213565b60405180910390f35b3480156106fc57600080fd5b5061071760048036038101906107129190612864565b6113a4565b6040516107249190612962565b60405180910390f35b60007f80ac58cd000000000000000000000000000000000000000000000000000000007bffffffffffffffffffffffffffffffffffffffffffffffffffffffff1916827bffffffffffffffffffffffffffffffffffffffffffffffffffffffff191614806107f857507f5b5e139f000000000000000000000000000000000000000000000000000000007bffffffffffffffffffffffffffffffffffffffffffffffffffffffff1916827bffffffffffffffffffffffffffffffffffffffffffffffffffffffff1916145b806108085750610807826117d7565b5b9050919050565b60606000805461081e906129b3565b80601f016020809104026020016040519081016040528092919081815260200182805461084a906129b3565b80156108975780601f1061086c57610100808354040283529160200191610897565b820191906000526020600020905b81548152906001019060200180831161087a57829003601f168201915b5050505050905090565b60006108ac82611841565b6004600083815260200190815260200160002060009054906101000a900473ffffffffffffffffffffffffffffffffffffffff169050919050565b60006108f282610f95565b90508073ffffffffffffffffffffffffffffffffffffffff168373ffffffffffffffffffffffffffffffffffffffff1603610962576040517f08c379a000000000000000000000000000000000000000000000000000000000815260040161095990612a56565b60405180910390fd5b8073ffffffffffffffffffffffffffffffffffffffff1661098161188c565b73ffffffffffffffffffffffffffffffffffffffff1614806109b057506109af816109aa61188c565b611233565b5b6109ef576040517f08c379a00000000000000000000000000000000000000000000000000000000081526004016109e690612ae8565b60405180910390fd5b6109f98383611894565b505050565b600960009054906101000a900473ffffffffffffffffffffffffffffffffffffffff1681565b600d5481565b600042905090565b610a43610a3d61188c565b8261194d565b610a82576040517f08c379a0000000000000000000000000000000000000000000000000000000008152600401610a7990612b7a565b60405180910390fd5b610a8d8383836119e2565b505050565b83600b8190555082600a8190555081600c8190555080600d8190555050505050565b60606000610ac183611430565b610aca84610b60565b604051602001610adb929190612e10565b6040516020818303038152906040529050610af5816114fe565b604051602001610b059190612ecd565b604051602081830303815290604052915050919050565b7f000000000000000000000000000000000000000000000000000000000000000081565b610b5b8383836040518060200160405280600081525061118c565b505050565b60606000610b6c6112cd565b604051602001610b7c9190613129565b6040516020818303038152906040529050610b96816114fe565b604051602001610ba691906131ce565b604051602081830303815290604052915050919050565b81600860009054906101000a900473ffffffffffffffffffffffffffffffffffffffff1673ffffffffffffffffffffffffffffffffffffffff1663dd62ed3e33306040518363ffffffff1660e01b8152600401610c1b9291906131f0565b602060405180830381865afa158015610c38573d6000803e3d6000fd5b505050506040513d601f19601f82011682018060405250810190610c5c919061322e565b1015610c9d576040517f08c379a0000000000000000000000000000000000000000000000000000000008152600401610c94906132a7565b60405180910390fd5b600860009054906101000a900473ffffffffffffffffffffffffffffffffffffffff1673ffffffffffffffffffffffffffffffffffffffff166323b872dd3330856040518463ffffffff1660e01b8152600401610cfc939291906132c7565b6020604051808303816000875af1158015610d1b573d6000803e3d6000fd5b505050506040513d601f19601f82011682018060405250810190610d3f9190613313565b50600860009054906101000a900473ffffffffffffffffffffffffffffffffffffffff1673ffffffffffffffffffffffffffffffffffffffff1663095ea7b37f0000000000000000000000000000000000000000000000000000000000000000846040518363ffffffff1660e01b8152600401610dbd929190613340565b6020604051808303816000875af1158015610ddc573d6000803e3d6000fd5b505050506040513d601f19601f82011682018060405250810190610e009190613313565b506000429050600081604051602001610e1991906123e9565b60405160208183030381529060405290507f000000000000000000000000000000000000000000000000000000000000000073ffffffffffffffffffffffffffffffffffffffff16638aac16ba848789600860009054906101000a900473ffffffffffffffffffffffffffffffffffffffff16338a7f0000000000000000000000000000000000000000000000000000000000000000896040518963ffffffff1660e01b8152600401610ed29796959493929190613378565b60206040518083038185885af1158015610ef0573d6000803e3d6000fd5b50505050506040513d601f19601f82011682018060405250810190610f159190613403565b506000600a5403610f3d57600d54600b819055506000600c8190555081600a81905550610f67565b600a5482610f4b919061345f565b600d54610f58919061345f565b600b819055506000600a819055505b505050505050565b600860009054906101000a900473ffffffffffffffffffffffffffffffffffffffff1681565b600080610fa183611cdb565b9050600073ffffffffffffffffffffffffffffffffffffffff168173ffffffffffffffffffffffffffffffffffffffff1603611012576040517f08c379a0000000000000000000000000000000000000000000000000000000008152600401611009906134df565b60405180910390fd5b80915050919050565b600c5481565b60008073ffffffffffffffffffffffffffffffffffffffff168273ffffffffffffffffffffffffffffffffffffffff1603611091576040517f08c379a000000000000000000000000000000000000000000000000000000000815260040161108890613571565b60405180910390fd5b600360008373ffffffffffffffffffffffffffffffffffffffff1673ffffffffffffffffffffffffffffffffffffffff168152602001908152602001600020549050919050565b6060600180546110e7906129b3565b80601f0160208091040260200160405190810160405280929190818152602001828054611113906129b3565b80156111605780601f1061113557610100808354040283529160200191611160565b820191906000526020600020905b81548152906001019060200180831161114357829003601f168201915b5050505050905090565b61117c61117561188c565b8383611d18565b5050565b60078060000154905081565b61119d61119761188c565b8361194d565b6111dc576040517f08c379a00000000000000000000000000000000000000000000000000000000081526004016111d390612b7a565b60405180910390fd5b6111e884848484611e84565b50505050565b60606111f982611841565b61120282610ab4565b9050919050565b7f000000000000000000000000000000000000000000000000000000000000000081565b600b5481565b6000600560008473ffffffffffffffffffffffffffffffffffffffff1673ffffffffffffffffffffffffffffffffffffffff16815260200190815260200160002060008373ffffffffffffffffffffffffffffffffffffffff1673ffffffffffffffffffffffffffffffffffffffff16815260200190815260200160002060009054906101000a900460ff16905092915050565b600a5481565b60606000600a54036112eb576112e4600b54611430565b90506113a1565b6000600c540361134657600b54600a5442611306919061345f565b1061131c576113156000611430565b90506113a1565b61133f600a544261132d919061345f565b600b5461133a919061345f565b611430565b90506113a1565b600d54600a5442611357919061345f565b600b546113649190613591565b1061137b57611374600d54611430565b90506113a1565b61139e600a544261138c919061345f565b600b546113999190613591565b611430565b90505b90565b60606000828060200190518101906113bc919061322e565b90506000600a54036113e4576000600b819055506001600c8190555080600a81905550611401565b600a54816113f2919061345f565b600b819055506000600a819055505b509695505050505050565b6001816000016000828254019250508190555050565b600081600001549050919050565b60606000600161143f84611661565b01905060008167ffffffffffffffff81111561145e5761145d612604565b5b6040519080825280601f01601f1916602001820160405280156114905781602001600182028036833780820191505090505b509050600082602001820190505b6001156114f3578080600190039150507f3031323334353637383961626364656600000000000000000000000000000000600a86061a8153600a85816114e7576114e66135c5565b5b0494506000850361149e575b819350505050919050565b606060008251036115205760405180602001604052806000815250905061165c565b6000604051806060016040528060408152602001613918604091399050600060036002855161154f9190613591565b61155991906135f4565b60046115659190613625565b67ffffffffffffffff81111561157e5761157d612604565b5b6040519080825280601f01601f1916602001820160405280156115b05781602001600182028036833780820191505090505b509050600182016020820185865187015b8082101561161c576003820191508151603f8160121c168501518453600184019350603f81600c1c168501518453600184019350603f8160061c168501518453600184019350603f81168501518453600184019350506115c1565b5050600386510660018114611638576002811461164b57611653565b603d6001830353603d6002830353611653565b603d60018303535b50505080925050505b919050565b600080600090507a184f03e93ff9f4daa797ed6e38ed64bf6a1f01000000000000000083106116bf577a184f03e93ff9f4daa797ed6e38ed64bf6a1f01000000000000000083816116b5576116b46135c5565b5b0492506040810190505b6d04ee2d6d415b85acef810000000083106116fc576d04ee2d6d415b85acef810000000083816116f2576116f16135c5565b5b0492506020810190505b662386f26fc10000831061172b57662386f26fc100008381611721576117206135c5565b5b0492506010810190505b6305f5e1008310611754576305f5e100838161174a576117496135c5565b5b0492506008810190505b612710831061177957612710838161176f5761176e6135c5565b5b0492506004810190505b6064831061179c5760648381611792576117916135c5565b5b0492506002810190505b600a83106117ab576001810190505b80915050919050565b6000808273ffffffffffffffffffffffffffffffffffffffff163b119050919050565b60007f01ffc9a7000000000000000000000000000000000000000000000000000000007bffffffffffffffffffffffffffffffffffffffffffffffffffffffff1916827bffffffffffffffffffffffffffffffffffffffffffffffffffffffff1916149050919050565b61184a81611ee0565b611889576040517f08c379a0000000000000000000000000000000000000000000000000000000008152600401611880906134df565b60405180910390fd5b50565b600033905090565b816004600083815260200190815260200160002060006101000a81548173ffffffffffffffffffffffffffffffffffffffff021916908373ffffffffffffffffffffffffffffffffffffffff160217905550808273ffffffffffffffffffffffffffffffffffffffff1661190783610f95565b73ffffffffffffffffffffffffffffffffffffffff167f8c5be1e5ebec7d5bd14f71427d1e84f3dd0314c0f7b2291e5b200ac8c7c3b92560405160405180910390a45050565b60008061195983610f95565b90508073ffffffffffffffffffffffffffffffffffffffff168473ffffffffffffffffffffffffffffffffffffffff16148061199b575061199a8185611233565b5b806119d957508373ffffffffffffffffffffffffffffffffffffffff166119c1846108a1565b73ffffffffffffffffffffffffffffffffffffffff16145b91505092915050565b8273ffffffffffffffffffffffffffffffffffffffff16611a0282610f95565b73ffffffffffffffffffffffffffffffffffffffff1614611a58576040517f08c379a0000000000000000000000000000000000000000000000000000000008152600401611a4f906136d9565b60405180910390fd5b600073ffffffffffffffffffffffffffffffffffffffff168273ffffffffffffffffffffffffffffffffffffffff1603611ac7576040517f08c379a0000000000000000000000000000000000000000000000000000000008152600401611abe9061376b565b60405180910390fd5b611ad48383836001611f21565b8273ffffffffffffffffffffffffffffffffffffffff16611af482610f95565b73ffffffffffffffffffffffffffffffffffffffff1614611b4a576040517f08c379a0000000000000000000000000000000000000000000000000000000008152600401611b41906136d9565b60405180910390fd5b6004600082815260200190815260200160002060006101000a81549073ffffffffffffffffffffffffffffffffffffffff02191690556001600360008573ffffffffffffffffffffffffffffffffffffffff1673ffffffffffffffffffffffffffffffffffffffff168152602001908152602001600020600082825403925050819055506001600360008473ffffffffffffffffffffffffffffffffffffffff1673ffffffffffffffffffffffffffffffffffffffff16815260200190815260200160002060008282540192505081905550816002600083815260200190815260200160002060006101000a81548173ffffffffffffffffffffffffffffffffffffffff021916908373ffffffffffffffffffffffffffffffffffffffff160217905550808273ffffffffffffffffffffffffffffffffffffffff168473ffffffffffffffffffffffffffffffffffffffff167fddf252ad1be2c89b69c2b068fc378daa952ba7f163c4a11628f55a4df523b3ef60405160405180910390a4611cd68383836001611f27565b505050565b60006002600083815260200190815260200160002060009054906101000a900473ffffffffffffffffffffffffffffffffffffffff169050919050565b8173ffffffffffffffffffffffffffffffffffffffff168373ffffffffffffffffffffffffffffffffffffffff1603611d86576040517f08c379a0000000000000000000000000000000000000000000000000000000008152600401611d7d906137d7565b60405180910390fd5b80600560008573ffffffffffffffffffffffffffffffffffffffff1673ffffffffffffffffffffffffffffffffffffffff16815260200190815260200160002060008473ffffffffffffffffffffffffffffffffffffffff1673ffffffffffffffffffffffffffffffffffffffff16815260200190815260200160002060006101000a81548160ff0219169083151502179055508173ffffffffffffffffffffffffffffffffffffffff168373ffffffffffffffffffffffffffffffffffffffff167f17307eab39ab6107e8899845ad3d59bd9653f200f220920489ca2b5937696c3183604051611e779190612168565b60405180910390a3505050565b611e8f8484846119e2565b611e9b84848484611f2d565b611eda576040517f08c379a0000000000000000000000000000000000000000000000000000000008152600401611ed190613869565b60405180910390fd5b50505050565b60008073ffffffffffffffffffffffffffffffffffffffff16611f0283611cdb565b73ffffffffffffffffffffffffffffffffffffffff1614159050919050565b50505050565b50505050565b6000611f4e8473ffffffffffffffffffffffffffffffffffffffff166117b4565b156120a7578373ffffffffffffffffffffffffffffffffffffffff1663150b7a02611f7761188c565b8786866040518563ffffffff1660e01b8152600401611f999493929190613889565b6020604051808303816000875af1925050508015611fd557506040513d601f19601f82011682018060405250810190611fd291906138ea565b60015b612057573d8060008114612005576040519150601f19603f3d011682016040523d82523d6000602084013e61200a565b606091505b50600081510361204f576040517f08c379a000000000000000000000000000000000000000000000000000000000815260040161204690613869565b60405180910390fd5b805181602001fd5b63150b7a0260e01b7bffffffffffffffffffffffffffffffffffffffffffffffffffffffff1916817bffffffffffffffffffffffffffffffffffffffffffffffffffffffff1916149150506120ac565b600190505b949350505050565b6000604051905090565b600080fd5b600080fd5b60007fffffffff0000000000000000000000000000000000000000000000000000000082169050919050565b6120fd816120c8565b811461210857600080fd5b50565b60008135905061211a816120f4565b92915050565b600060208284031215612136576121356120be565b5b60006121448482850161210b565b91505092915050565b60008115159050919050565b6121628161214d565b82525050565b600060208201905061217d6000830184612159565b92915050565b600081519050919050565b600082825260208201905092915050565b60005b838110156121bd5780820151818401526020810190506121a2565b60008484015250505050565b6000601f19601f8301169050919050565b60006121e582612183565b6121ef818561218e565b93506121ff81856020860161219f565b612208816121c9565b840191505092915050565b6000602082019050818103600083015261222d81846121da565b905092915050565b6000819050919050565b61224881612235565b811461225357600080fd5b50565b6000813590506122658161223f565b92915050565b600060208284031215612281576122806120be565b5b600061228f84828501612256565b91505092915050565b600073ffffffffffffffffffffffffffffffffffffffff82169050919050565b60006122c382612298565b9050919050565b6122d3816122b8565b82525050565b60006020820190506122ee60008301846122ca565b92915050565b6122fd816122b8565b811461230857600080fd5b50565b60008135905061231a816122f4565b92915050565b60008060408385031215612337576123366120be565b5b60006123458582860161230b565b925050602061235685828601612256565b9150509250929050565b6000819050919050565b600061238561238061237b84612298565b612360565b612298565b9050919050565b60006123978261236a565b9050919050565b60006123a98261238c565b9050919050565b6123b98161239e565b82525050565b60006020820190506123d460008301846123b0565b92915050565b6123e381612235565b82525050565b60006020820190506123fe60008301846123da565b92915050565b60008060006060848603121561241d5761241c6120be565b5b600061242b8682870161230b565b935050602061243c8682870161230b565b925050604061244d86828701612256565b9150509250925092565b60008060008060808587031215612471576124706120be565b5b600061247f87828801612256565b945050602061249087828801612256565b93505060406124a187828801612256565b92505060606124b287828801612256565b91505092959194509250565b600063ffffffff82169050919050565b6124d7816124be565b81146124e257600080fd5b50565b6000813590506124f4816124ce565b92915050565b60008060008060808587031215612514576125136120be565b5b60006125228782880161230b565b9450506020612533878288016124e5565b935050604061254487828801612256565b925050606061255587828801612256565b91505092959194509250565b600060208284031215612577576125766120be565b5b60006125858482850161230b565b91505092915050565b6125978161214d565b81146125a257600080fd5b50565b6000813590506125b48161258e565b92915050565b600080604083850312156125d1576125d06120be565b5b60006125df8582860161230b565b92505060206125f0858286016125a5565b9150509250929050565b600080fd5b600080fd5b7f4e487b7100000000000000000000000000000000000000000000000000000000600052604160045260246000fd5b61263c826121c9565b810181811067ffffffffffffffff8211171561265b5761265a612604565b5b80604052505050565b600061266e6120b4565b905061267a8282612633565b919050565b600067ffffffffffffffff82111561269a57612699612604565b5b6126a3826121c9565b9050602081019050919050565b82818337600083830152505050565b60006126d26126cd8461267f565b612664565b9050828152602081018484840111156126ee576126ed6125ff565b5b6126f98482856126b0565b509392505050565b600082601f830112612716576127156125fa565b5b81356127268482602086016126bf565b91505092915050565b60008060008060808587031215612749576127486120be565b5b60006127578782880161230b565b94505060206127688782880161230b565b935050604061277987828801612256565b925050606085013567ffffffffffffffff81111561279a576127996120c3565b5b6127a687828801612701565b91505092959194509250565b60006127bd8261238c565b9050919050565b6127cd816127b2565b82525050565b60006020820190506127e860008301846127c4565b92915050565b60008060408385031215612805576128046120be565b5b60006128138582860161230b565b92505060206128248582860161230b565b9150509250929050565b6000819050919050565b6128418161282e565b811461284c57600080fd5b50565b60008135905061285e81612838565b92915050565b60008060008060008060c08789031215612881576128806120be565b5b600061288f89828a0161284f565b96505060206128a089828a01612256565b95505060406128b189828a0161230b565b94505060606128c289828a0161230b565b93505060806128d389828a016124e5565b92505060a087013567ffffffffffffffff8111156128f4576128f36120c3565b5b61290089828a01612701565b9150509295509295509295565b600081519050919050565b600082825260208201905092915050565b60006129348261290d565b61293e8185612918565b935061294e81856020860161219f565b612957816121c9565b840191505092915050565b6000602082019050818103600083015261297c8184612929565b905092915050565b7f4e487b7100000000000000000000000000000000000000000000000000000000600052602260045260246000fd5b600060028204905060018216806129cb57607f821691505b6020821081036129de576129dd612984565b5b50919050565b7f4552433732313a20617070726f76616c20746f2063757272656e74206f776e6560008201527f7200000000000000000000000000000000000000000000000000000000000000602082015250565b6000612a4060218361218e565b9150612a4b826129e4565b604082019050919050565b60006020820190508181036000830152612a6f81612a33565b9050919050565b7f4552433732313a20617070726f76652063616c6c6572206973206e6f7420746f60008201527f6b656e206f776e6572206f7220617070726f76656420666f7220616c6c000000602082015250565b6000612ad2603d8361218e565b9150612add82612a76565b604082019050919050565b60006020820190508181036000830152612b0181612ac5565b9050919050565b7f4552433732313a2063616c6c6572206973206e6f7420746f6b656e206f776e6560008201527f72206f7220617070726f76656400000000000000000000000000000000000000602082015250565b6000612b64602d8361218e565b9150612b6f82612b08565b604082019050919050565b60006020820190508181036000830152612b9381612b57565b9050919050565b600081905092915050565b7f7b00000000000000000000000000000000000000000000000000000000000000600082015250565b6000612bdb600183612b9a565b9150612be682612ba5565b600182019050919050565b7f226e616d65223a2022466c6f7779204e46540000000000000000000000000000600082015250565b6000612c27601283612b9a565b9150612c3282612bf1565b601282019050919050565b6000612c4882612183565b612c528185612b9a565b9350612c6281856020860161219f565b80840191505092915050565b7f222c000000000000000000000000000000000000000000000000000000000000600082015250565b6000612ca4600283612b9a565b9150612caf82612c6e565b600282019050919050565b7f226465736372697074696f6e223a20224e465420746861742063616e2062652060008201527f73747265616d65642063726f73732d636861696e2e222c000000000000000000602082015250565b6000612d16603783612b9a565b9150612d2182612cba565b603782019050919050565b7f22696d616765223a202200000000000000000000000000000000000000000000600082015250565b6000612d62600a83612b9a565b9150612d6d82612d2c565b600a82019050919050565b7f2200000000000000000000000000000000000000000000000000000000000000600082015250565b6000612dae600183612b9a565b9150612db982612d78565b600182019050919050565b7f7d00000000000000000000000000000000000000000000000000000000000000600082015250565b6000612dfa600183612b9a565b9150612e0582612dc4565b600182019050919050565b6000612e1b82612bce565b9150612e2682612c1a565b9150612e328285612c3d565b9150612e3d82612c97565b9150612e4882612d09565b9150612e5382612d55565b9150612e5f8284612c3d565b9150612e6a82612da1565b9150612e7582612ded565b91508190509392505050565b7f646174613a6170706c69636174696f6e2f6a736f6e3b6261736536342c000000600082015250565b6000612eb7601d83612b9a565b9150612ec282612e81565b601d82019050919050565b6000612ed882612eaa565b9150612ee48284612c3d565b915081905092915050565b7f3c7376672077696474683d223130302522206865696768743d2231303025222060008201527f76696577426f783d2230203020323030203230302220786d6c6e733d2268747460208201527f703a2f2f7777772e77332e6f72672f323030302f737667223e00000000000000604082015250565b6000612f71605983612b9a565b9150612f7c82612eef565b605982019050919050565b7f3c7465787420783d223130302220793d223130302220746578742d616e63686f60008201527f723d226d6964646c65223e000000000000000000000000000000000000000000602082015250565b6000612fe3602b83612b9a565b9150612fee82612f87565b602b82019050919050565b7f266c743b00000000000000000000000000000000000000000000000000000000600082015250565b600061302f600483612b9a565b915061303a82612ff9565b600482019050919050565b7f2667743b00000000000000000000000000000000000000000000000000000000600082015250565b600061307b600483612b9a565b915061308682613045565b600482019050919050565b7f3c2f746578743e00000000000000000000000000000000000000000000000000600082015250565b60006130c7600783612b9a565b91506130d282613091565b600782019050919050565b7f3c2f7376673e0000000000000000000000000000000000000000000000000000600082015250565b6000613113600683612b9a565b915061311e826130dd565b600682019050919050565b600061313482612f64565b915061313f82612fd6565b915061314a82613022565b91506131568284612c3d565b91506131618261306e565b915061316c826130ba565b915061317782613106565b915081905092915050565b7f646174613a696d6167652f7376672b786d6c3b6261736536342c000000000000600082015250565b60006131b8601a83612b9a565b91506131c382613182565b601a82019050919050565b60006131d9826131ab565b91506131e58284612c3d565b915081905092915050565b600060408201905061320560008301856122ca565b61321260208301846122ca565b9392505050565b6000815190506132288161223f565b92915050565b600060208284031215613244576132436120be565b5b600061325284828501613219565b91505092915050565b7f546f6b656e20617070726f76616c207265717569726564210000000000000000600082015250565b600061329160188361218e565b915061329c8261325b565b602082019050919050565b600060208201905081810360008301526132c081613284565b9050919050565b60006060820190506132dc60008301866122ca565b6132e960208301856122ca565b6132f660408301846123da565b949350505050565b60008151905061330d8161258e565b92915050565b600060208284031215613329576133286120be565b5b6000613337848285016132fe565b91505092915050565b600060408201905061335560008301856122ca565b61336260208301846123da565b9392505050565b613372816124be565b82525050565b600060e08201905061338d600083018a613369565b61339a60208301896122ca565b6133a760408301886122ca565b6133b460608301876122ca565b6133c160808301866123da565b6133ce60a08301856123da565b81810360c08301526133e08184612929565b905098975050505050505050565b6000815190506133fd81612838565b92915050565b600060208284031215613419576134186120be565b5b6000613427848285016133ee565b91505092915050565b7f4e487b7100000000000000000000000000000000000000000000000000000000600052601160045260246000fd5b600061346a82612235565b915061347583612235565b925082820390508181111561348d5761348c613430565b5b92915050565b7f4552433732313a20696e76616c696420746f6b656e2049440000000000000000600082015250565b60006134c960188361218e565b91506134d482613493565b602082019050919050565b600060208201905081810360008301526134f8816134bc565b9050919050565b7f4552433732313a2061646472657373207a65726f206973206e6f74206120766160008201527f6c6964206f776e65720000000000000000000000000000000000000000000000602082015250565b600061355b60298361218e565b9150613566826134ff565b604082019050919050565b6000602082019050818103600083015261358a8161354e565b9050919050565b600061359c82612235565b91506135a783612235565b92508282019050808211156135bf576135be613430565b5b92915050565b7f4e487b7100000000000000000000000000000000000000000000000000000000600052601260045260246000fd5b60006135ff82612235565b915061360a83612235565b92508261361a576136196135c5565b5b828204905092915050565b600061363082612235565b915061363b83612235565b925082820261364981612235565b915082820484148315176136605761365f613430565b5b5092915050565b7f4552433732313a207472616e736665722066726f6d20696e636f72726563742060008201527f6f776e6572000000000000000000000000000000000000000000000000000000602082015250565b60006136c360258361218e565b91506136ce82613667565b604082019050919050565b600060208201905081810360008301526136f2816136b6565b9050919050565b7f4552433732313a207472616e7366657220746f20746865207a65726f2061646460008201527f7265737300000000000000000000000000000000000000000000000000000000602082015250565b600061375560248361218e565b9150613760826136f9565b604082019050919050565b6000602082019050818103600083015261378481613748565b9050919050565b7f4552433732313a20617070726f766520746f2063616c6c657200000000000000600082015250565b60006137c160198361218e565b91506137cc8261378b565b602082019050919050565b600060208201905081810360008301526137f0816137b4565b9050919050565b7f4552433732313a207472616e7366657220746f206e6f6e20455243373231526560008201527f63656976657220696d706c656d656e7465720000000000000000000000000000602082015250565b600061385360328361218e565b915061385e826137f7565b604082019050919050565b6000602082019050818103600083015261388281613846565b9050919050565b600060808201905061389e60008301876122ca565b6138ab60208301866122ca565b6138b860408301856123da565b81810360608301526138ca8184612929565b905095945050505050565b6000815190506138e4816120f4565b92915050565b600060208284031215613900576138ff6120be565b5b600061390e848285016138d5565b9150509291505056fe4142434445464748494a4b4c4d4e4f505152535455565758595a6162636465666768696a6b6c6d6e6f707172737475767778797a303132333435363738392b2fa26469706673582212203720a67e2aaf4e6db26a110a6b33531dec5425bf9d168797118faf316890174464736f6c634300081100334142434445464748494a4b4c4d4e4f505152535455565758595a6162636465666768696a6b6c6d6e6f707172737475767778797a303132333435363738392b2f",
	"linkReferences": {},
	"deployedLinkReferences": {}
}